:020000021000EC
:10000000004008207F0101004D010100E1000100D6
:100010003D0101002D0101001D0101000000000053
:10002000000000000000000000000000F96D010069
:100030000D010100000000007D6E0100B96E01009D
:10004000FD000100FD000100AD200100FD000100E8
:10005000FD0001003D570100FD000100A557010012
:100060000D580100FD000100FD000100FD00010030
:10007000F1520100FD000100FD000100FD00010042
:10008000FD000100414B0100FD000100FD000100E9
:10009000FD000100A9510100FD000100FD0001006B
:1000A000FD000100F5500100FD000100FD00010010
:1000B000FD00010089720100FD000100FD0001004A
:1000C000FD000100FD000100FD000100A80102008B
:1000D00000C007202801000028C10720C00400003C
:1000E00004207146084200F00480EFF3098007F015
:1000F00031B9EFF3088007F02DB9704708B5024811
:1001000000F09EF9FEE700BFE1FA010008B50248E1
:1001100000F096F9FEE700BFF7FA010008B50248C3
:1001200000F08EF9FEE700BF07FB010008B50248AA
:1001300000F086F9FEE700BF14FB010008B5024895
:1001400000F07EF9FEE700BF1FFB010008B5024882
:1001500000F076F9FEE700BF2AFB010010B500238E
:10016000934203D21C585C500433F9E710BD0023BE
:100170008B4203D200221A500433F9E7704710B5BE
:10018000114C124B9C4205D294E807000C34FFF747
:10019000E5FFF6E70E48844205D294E803000834F0
:1001A000FFF7E5FFF6E708F013FF06F02FFF00F07A
:1001B000A3FA00F05FFE4FF4164007F0FFF9054880
:1001C00000F03EF9FEE700BFCC000100D8000100BE
:1001D000E00001009CFB010008B5024800F030F986
:1001E000FEE700BFC5FB010008B5024800F028F992
:1001F000FEE700BFD0FB010008B5024800F020F97F
:10020000FEE700BFDFFB01000E4B30B51A68014668
:1002100012B94FF08050186018680B4D44186319DC
:100220000A4D084AAB4201D9146002E00848091897
:100230001160044B074A1968914284BF1A6000207C
:1002400030BD00BF28C10720FF7FFFEFFE3F071032
:10025000E8C507200040082008F0E0BE08F0E6BE30
:1002600030B58BB00446684609F0C4F91C4D089BB4
:1002700007982560A360606058B91A491A4A0B684C
:1002800093428ABF03F1604303F17043A3F5E8236F
:1002900063606068B0F5803F04D900F17041A1F55A
:1002A000E82363600F48104B016800229942E26026
:1002B00006D86D18C5F1805303F58035E5600BE075
:1002C0000A4A914208D80A48C0F1804303F58012D7
:1002D000501A0028C8BFE060216120460BB030BD35
:1002E000E805000028C1072000800010FF3F08201B
:1002F000E8C50720FEE70000014B1860704700BF0B
:100300002CC10720014B1860704700BF30C1072087
:1003100008B5024809F090F9FEE700BF08EA0100BD
:1003200008B5024809F088F9FEE700BF22EA01009B
:100330000020704701207047084B70B518680E46C2
:10034000154640B10024AC4205DA044930570A682A
:1003500090470134F7E7284670BD00BF2CC1072045
:10036000094B70B518680E46154600B970BD0024DB
:10037000AC4206DA04480168002088473055013451
:10038000F6E725EAE57070BD30C107207047002010
:1003900070470000074B19688A68824207D04B6893
:1003A000834204D0C9680A1A504250417047012064
:1003B000704700BF84C007200020704700207047AE
:1003C00030B504468DB0002837D0684605F024F8D3
:1003D0009DF800309DF8011003F03F0003909DF858
:1003E000040001F03F029DF8025000F01F0104924A
:1003F000BDF806009DF8052005F01F03069102F0E8
:100400000F05C0F30B018AB20593BDF808106B1EEF
:1004100007939DF80330A2F26C75C1F30B0203F051
:100420000700089595B26B1E0990002503A80A9352
:100430000B9508F043FF84E8210000200DB030BD8B
:1004400010B5044606F0FEFC013C14F8010F18B18B
:1004500040B207F0EFF8F8E7BDE8104006F004BD41
:100460000FB470B5A2B026AC54F8046B80250021FF
:100470002A4602A808F052FE23462946324602A820
:1004800001940BF087FE044602A8FFF7D9FF20462F
:1004900022B0BDE8704004B07047000038B50F4C82
:1004A000256815F0010516D1204607F065F990B1D1
:1004B0004FF40E70FFF7D0FE094B30223A2180F83E
:1004C000345280F8352280F8361280F8375218609E
:1004D000204607F05FF90248006838BD38C10720A0
:1004E0003CC1072038B5064C236833B91C20FFF700
:1004F000B3FE054604F0F2FE2560206838BD00BF5B
:1005000044C1072038B50D46044607F009F8074BEB
:100510000221B0FBF3F0B0FBF1F2954201D321616F
:1005200038BDB1F5807FFAD00231F4E740420F00C8
:10053000014809F081B800BF3CEA01007FB500F234
:1005400035260D460122314603F05EFDC4B24CBB98
:1005500004A941F8044D304602AA03F0ECFFF8B9B3
:10056000029A039994699378A21E5A4359435408F6
:1005700040F2E73348089C420F49104B8CBF4FF4C0
:100580008062012288BF0B46B0FBF2F18DE80A00C1
:100590000B482946B4FBF2F209F036F8012008E0D6
:1005A000084B00E0084B0948294662B209F02CF8D4
:1005B000002004B070BD00BF76EA010073EA0100BC
:1005C00080EA010079EA01007DEA0100AEEA01005B
:1005D00038B5AA224FF0804355201A72187206F0DF
:1005E00035FB174C01284FF000014FF00100D4E912
:1005F000002317D1121843EB0103C4E9002306F0CE
:10060000A1FED8B106F090FED4E900010A22002331
:1006100008F0E8F80A25A0FB052305FB0133C4E92F
:10062000002338BD121843EB0103C4E9002301F095
:10063000C3FC0020BDE8384006F0DEBC38BD00BF7A
:1006400068C10720FFF7C4BF024BD3E9002310465F
:100650001946704768C1072038B5084D2B684BB95B
:100660000820FFF7F9FD0446FFF73CFF206040201B
:1006700020712C600149086838BD00BF64C10720A3
:1006800038B5054C256825B90120FFF7E5FD057053
:100690002060206838BD00BF60C1072038B5094D13
:1006A0002B685BB90C20FFF7D7FD0446FFF71AFF54
:1006B0000021206090202071A1602C60014A106808
:1006C00038BD00BF40C1072010B5044C23681BB9DA
:1006D0000120FFF7C1FD2060206810BD48C1072040
:1006E00010B5044C23681BB90120FFF7B5FD20604D
:1006F000206810BD5CC10720634A644970B540237F
:10070000634D4FF000704FF480348B6190618C61C9
:100710002E68ADF5027D26F0F0032B60286840F0CE
:1007200050042C602E6826F440532B60086840F07B
:1007300040040C602E6826F47C232B60286840F46B
:1007400028242C602E6826F470032B60286840F45F
:1007500020042C602E6826F040432B60286840F06F
:1007600000442C606E6826F03C036B60686840F0C3
:1007700028046C606E6826F003036B60086840F420
:1007800080340C606E6826F440536B60086820F477
:1007900080040C60E96821F44036EE60136843F091
:1007A000807010606C6824F4402169606E68394C78
:1007B00046F480236B60A8680440AC60116841F483
:1007C000897646F001031360A86820F47014AC60C9
:1007D000A96821F07046AE60136823F446401060AB
:1007E000EC6824F03001E960EE6846F03003EB601D
:1007F000E86820F47014EC60156845F00071116031
:10080000166826F08063136006F08AFB4FF4FA60E6
:1008100004F0E8FBFFF78CFE06F082FE07F07EFD99
:100820001D4907F087FE07F0FFFB02460B461B48F9
:1008300008F0EAFE06F0E4FB04280AD1FFF778FE90
:100840001748C16C026D436D164808F0DDFEFFF7D6
:100850006FFE0C20012106F0DBFC134C0C20032161
:1008600006F0EEFC4FF40012226006F059FE02235F
:10087000C5080E4EB5FBF3F1B14219D8206840EA25
:100880000322226018E000BF20C0092000C0092018
:1008900000C00240F0FCFCFF00247449ECEA0100B7
:1008A0000040024004EB0100004003403F5DC600F1
:1008B0000233B3F5807FDCD104F0F8FE152001216E
:1008C00006F0A6FC1520012106F0BAFCA948072471
:1008D0000225046001214560FFF714FEFFF702FEC8
:1008E000642104F0C5FC10B9A34808F0A5FE01F08E
:1008F0003DFB10B9A14808F09FFE0121A04806F079
:10090000E7FCFFF7CBFD9F49FFF718FE0646B8B995
:100910009D4808F079FEFFF7C1FD3246314600F2EE
:10092000352003F06DFE9949994B002814BF1846F5
:10093000084608F081FEFFF7B1FD9249FFF7FEFD82
:10094000944C206810F0010517D1204606F014FFE2
:1009500098B14FF40E70FFF77FFC8F4B01223126C8
:100960003A2180F8342280F8356280F8361280F817
:1009700037521860204606F00DFF874C87492068E3
:10098000FFF7DCFD86481821FFF7BCFDFFF7D0FD1F
:1009900000250226FFF7A6FD71B204F0F9FF50B161
:1009A000382E08D0402E06D0902E04D07D483146F7
:1009B00008F02AFE01250236B6F5807FEAD10DB196
:1009C000FFF7B6FD784D286848B90820FFF744FCCA
:1009D0000446FFF787FD3822206022712C6072499F
:1009E000086801F051FB044618B9704808F024FE6D
:1009F00000E00124FFF752FE01F06AFC064618B938
:100A00006B4808F019FE3446FFF726FE01F007FC9C
:100A1000054618B9674808F00FFE2C46664E336845
:100A20001BB90120FFF718FC3060306801F08EFB25
:100A3000FFF74AFE01F03AFCFFF722FE01F00CFC42
:100A4000FFF74EFE01F036FCFFF71AFE002101F021
:100A500005FC94B9FFF76CFDFFF7FEFD2D2101F0B9
:100A6000A7FBFFF7F9FD2D2101F0AEFBFFF708FE14
:100A70004FF0FF3101F0F2FB0CE0FFF7EDFD054612
:100A8000FFF70CFE01F050FC07F066FE41B228466D
:100A900001F0A6FB0023494802A907220293039311
:100AA00001F054FCA8B902A808F08FF9C4B2601E86
:100AB000C2B2FD2A05D902A9404A414808F0A4FD66
:100AC00007E0404821463D4A08F09EFD204600F0E0
:100AD0001FFCFFF7F9FD01F0EBFB064600200AF0D2
:100AE00023F8301808F0C6FD4FF40072002102A868
:100AF00008F014FB02A806F0D5FB02A9324808F062
:100B000083FDFFF715FD0021802202A808F006FBF7
:100B100002A802F05BFA9DF908506B1C05D002A9EF
:100B2000EAB22A4808F070FD64E0FFF7D9FD01F051
:100B3000C3FB092858D1264808F07EFD02A92548A4
:100B400008F0C2FE02A9244808F05EFD234808F020
:100B500073FD00210191224801A908F0B5FE9DF91D
:100B60000430592B03D102A802F012FA42E01D48CA
:100B70003EE000BF0080084058EB010089EB010017
:100B8000D1050100AEEB0100B6EB0100E1EA010086
:100B9000E6EA01004CC1072050C10720DFEB01004D
:100BA00000000340E7EB010054C107200AEC0100FC
:100BB00025EC01003FEC010058C1072058EC010072
:100BC0005EEC010089EC0100B6EC0100B9EC01001B
:100BD000D5EC0100F7EC0100FCEC010017ED010081
:100BE0005AED01005EED0100144808F025FD14489F
:100BF00008F022FD4FF20804206862684FF4704349
:100C00004FF20401850A960AA4681A6809680D481B
:100C100008F0FAFC2A4631460B4808F0F5FC21465C
:100C20000A4808F0F1FCFFF783FC094808F004FDCE
:100C3000FFF77EFC0DF5027D70BD00BF76ED010073
:100C4000A4ED0100D6ED010002EE01002FEE01003F
:100C50004CEE0100014B0360704700BF68EE0100DD
:100C6000012070470120704701207047034B10B5E9
:100C700004460360FFF7F2FA204610BD68EE01005B
:100C8000014B0360704700BF68EE0100034B10B5D5
:100C900004460360FFF7E2FA204610BD68EE01004B
:100CA00038B52E4A436E0446D361226D012101FA04
:100CB00002F22B4B58690242184605D15D69236E3A
:100CC00001FA03F129423ED041690A4216D1636E0E
:100CD000224904F13C058B61606C07F023FB01465F
:100CE000284604F059FB206C07F01CFB04F13D057D
:100CF0000146284604F050FB1A481DE0184A236EAE
:100D00000121506901FA03F2024222D1656E1348B3
:100D10008561206C07F006FB04F13C05014628467E
:100D200004F03AFB606C07F0FDFA04F13D05014662
:100D3000284604F031FB0C4808F07EFC4FF4FA70B2
:100D400004F050F905E0A26E0848511CA16608F0B5
:100D50005BFC606E014BD861012038BD00C00920EA
:100D600020C009202BEF010036EF010042EF010007
:100D70003B4B70B5D3F8A821044622F44050C3F889
:100D8000A801D3F8A811A26C41F40055C3F8A851EA
:100D9000012505FA02F0334E336823EA0001316081
:100DA000E26C336805FA02F023EA00013160226D3B
:100DB00056F8203C05FA02F023EA000146F8201C10
:100DC000626D56F8203C05FA02F023EA000146F86D
:100DD000201CA26D56F8203C05FA02F023EA00011F
:100DE00046F8201CE26D56F8203C05FA02F023EA92
:100DF000000146F8201C226E56F8203C05FA02F04D
:100E000023EA000146F8201C626E56F8403C05FAC1
:100E100002F0184346F8400C1349144EA163666370
:100E2000606C07F07FFA04F13C060146304604F09E
:100E3000B3FA606C07F076FA04F13D060C4C0146FB
:100E4000304604F0A9FA266826B92846FFF704FAC6
:100E50000670206020680F2101F000FA012070BDAB
:100E600000C00F4040C009207151010039510100FC
:100E700060C1072073B56C20FFF7EEF9002504462A
:100E8000012300951C494FF4806204F075F829464F
:100E9000322204F1310004F03DFA184B1848194988
:100EA00023606063A1632A46294604F13C0004F0F4
:100EB00031FA01212A4604F13D0004F02BFA0726FD
:100EC00006221E231721A264E6641D221420012697
:100ED00023642065A16522666366204665646565B6
:100EE000E665A56604F00AF83046294604F016F8CF
:100EF0004FF0FF307CBD00BF55EF0100A8EE0100B0
:100F0000395101007151010030B500238B420DD0E1
:100F100044783CB1048C4FF6FF751419AC4228BFDD
:100F20002C4604840133DBB22430EFE730BD0000EF
:100F300037B50E49002302A84A6840F8043D042151
:100F400090470B4B05461C6801980421041B186050
:100F500022460848FFF7D8FF022107482246FFF73C
:100F6000D3FF281C18BF01203EBD00BF5CC2072074
:100F7000B8C20720BDC1072070C2072008B50B4BBF
:100F800001781A780A4B914203D1198801311980EE
:100F900002E09988013199808270064A2021D36845
:100FA0009847003018BF012008BD00BF05C00720CA
:100FB00099C107205CC207200A4B027819780A4BB6
:100FC0008A4203D1DA88511CD98002E01A89511C67
:100FD00019810379C3F3C202511E61F3C503037182
:100FE000FFF7CCBF05C0072099C1072010B500232B
:100FF000064A990012F82340844201D1501810BDCE
:101000000133042BF4D1002010BD00BF89C107209B
:1010100070B1C378591CCAB2FF2AC27008D100232C
:101020000448C218D17804334808102BD070F7D187
:10103000704700BF89C10720F0B503460246044649
:1010400000258D4207D02046243414F8236CC6B105
:101050000135EDB2F5E7002004468C4210D0157939
:10106000178CC5F3C20547EA0545A842164624BFBA
:1010700005461E460134E4B2243228463346ECE7E6
:101080001846F0BD38B501310446CD00FFF750FFDA
:101090001B4B20781A78824204D102211948FFF7AD
:1010A000CBFF0CE004211848FFF7C6FFE17831B907
:1010B00090F8235045F0800380F82330042590F801
:1010C0002310002221F07F0380F8225043EA1525E7
:1010D00080F8202080F8212080F823502346024603
:1010E00004F1200153F8044B8B4242F8044BF9D130
:1010F000064A0379117861F3C503037138BD00BF57
:1011000005C0072070C20720BDC1072004C007200A
:1011100010B5FFF76BFF044608BBFFF767FF0446F7
:10112000E8B9104AD378D179994202D20B46111D01
:1011300000E01146D07AD47B984238BF0A490B4A66
:1011400038BF03469C422CBF0C4614462046002163
:10115000042207F0E3FF064BD97A481CD8722046D8
:1011600010BD00BF89C1072091C1072095C107208C
:1011700099C107202DE9F041054690460C4600270D
:10118000474500F0BE8094F8233003F08000C1B2E0
:1011900069B3BDB12B786278934203D16878217826
:1011A00088421ED0E87868B16978914208D12278E7
:1011B0009A4205D1A879A179421A5342534100E0DD
:1011C000002373B994F8232094F82210208C02F0A5
:1011D0007F0341EA03218842C0F28F802046FFF757
:1011E000CDFE20460021242207F098FF85E0637899
:1011F000002B00F08280002D3DD02A7902F0C00043
:10120000C0281AD16A782178914202D12878984270
:10121000E7D0E078A978884210D1934209D12078AC
:101220002A78904205D1A079AA79811A4842414191
:1012300000E000210029D4D100E0E0B1A978E278F3
:10124000914218D16878984209D121782A78914240
:1012500005D1A179AA79881A4142484100E00020CD
:1012600048B12279002161F3C50284F8201084F886
:101270002110227141E094F8232094F82200218C5F
:1012800002F07F0240EA0220814236DB217900260B
:10129000C1F3C20284F8206084F82160D6B21EB186
:1012A0002046FFF789FE28E001F0C000C02818D0D2
:1012B000154920780978884213D1E078984210D0F7
:1012C00078B16379E270032262F3071363712046F9
:1012D000FFF772FE0D482179037863F3C501217190
:1012E00000E001266078FFF781FE18B1002104229A
:1012F00007F014FF002E7FF474AF0137FFB22434DF
:101300003EE7BDE8F08100BF05C0072004C007200C
:10131000431ED9B2FD2903D8024A1070012070473C
:101320000020704705C00720014B1878704700BFA8
:1013300005C007202DE9F7430446914698469DF8DD
:1013400028600D46002958D02F4B1F78B94254D041
:10135000B8F10F0F51D8002851D02022002107F0FA
:10136000DDFEFF2D207914BF09F00302002262F395
:101370008710032161F30200244B20711A78277033
:1013800062F3C50020712248A77001780BAF4B1C97
:10139000DAB20270A271657001970EB9012613E0EE
:1013A0000198013E03464268E07953F8081B87180C
:1013B000FFB2182F0193F6B205D80830201807F0B5
:1013C000A4FEE771E9E70026124F01212846397093
:1013D000FFF70CFE0546FFF71BFE00223A7063790B
:1013E00025B968F307136371E57009E0A87860F325
:1013F000071363716978E17002E0002600E0064699
:101400003046BDE8FE8300BF05C0072004C00720AA
:1014100088C10720BDC20720164B70B501261E707B
:10142000044608B900251FE0FFF7A8FD054600287F
:10143000F8D0207900F0C001402903D0B1F180023A
:1014400056425641C02906D1E3782BB16078C31AC1
:1014500018BF012300E000230EB9DB0704D5617932
:1014600020460909FFF70EFE024B00221A7028469B
:1014700070BD00BFBDC2072082B0F0B51746421E46
:101480000446D0B28DB0FD280D46139301D900203B
:101490005AE0002BFBD0159B002BF8D017990029A0
:1014A000F5D0169A002AF2D014980028EFD0002127
:1014B0004822284807F032FE00219022264807F0F3
:1014C0002DFE00211022254807F028FE244E002181
:1014D0000C22244807F022FE00210C22224807F0AB
:1014E0001DFE3470214C224E2570344613AD0FCDB5
:1014F0000FC42B68002118221E48236007F00EFE3F
:10150000394617221B4808F060FB0020B2680146EC
:1015100090470028BBD09DF8601011B9FFF708FD77
:1015200012E015480622012301900292009304A8BC
:10153000FF210022FFF7FEFE0028A8D004A8FFF735
:101540006BFF0028A3D0E9E70DB0BDE8F04002B082
:10155000704700BF70C20720BDC1072089C10720A6
:1015600005C007204DC2072099C10720BEC2072031
:101570005CC20720A5C1072062EF010070B5182BDF
:101580008CB006460D4617D81C1C18BF0124002A33
:1015900014BF214684F0010171B1019202930094BD
:1015A00004A831462A469DF84030FFF7C3FE18B123
:1015B00004A8FFF731FF00E000200CB070BD13B5A8
:1015C0000446107852790B461109009122460321F6
:1015D000FFF7D4FF1CBD000000231846044A995CA5
:1015E00009B10130C0B20433102BF7D1704700BFEE
:1015F00089C107202DE9F04188B0684600212022EA
:1016000007F08CFDA14B1C78002C40F03B81A048DA
:101610002021026968469047002800F087809D4D90
:1016200069884B1C6B80FFF7D7FFA8729DF80420D8
:1016300002F00700032804D097490A7842F001001D
:1016400009E0964D9DF802102D78A94205D19249E6
:101650000B7843F002000870E6E0C2F3C2019DF887
:1016600000709DF806005FFA81FE032262438C4EF3
:10167000B318B65CBE420AD15A78824207D19A7832
:101680009970B2EB0E0618BF0126012417E0013451
:10169000042CEAD1834C236899708149587001F178
:1016A000090083421F7040F0CC8021609DF800004B
:1016B0009DF80220824240F0C780002426469DF813
:1016C0000200FFF725FD9DF80210002C08BF01263F
:1016D00001709DF80220002142708170F6B2FFF780
:1016E00097FC1EB39DF80000A84200F09C809DF876
:1016F0000160FF2E1CD16648202103686846984788
:1017000020B9654C227842F0040121709DF8053023
:1017100003F00F04601C1A4660F30302B4EB131FBE
:101720008DF8052002DA6846FFF728FC00247BE0EC
:10173000B5422CD16CB99DF8070050B1544B6846A6
:101740001A682021904720B9534C217841F00400B9
:1017500020709DF8043003F0C002402A12D19DF899
:10176000071011B95048182108E04A480C216A4670
:10177000FFF725FF002856D1002001466A46FFF7F3
:101780001EFF50E09DF80340002C4CD1F4E7474C7D
:101790002378002BCAD09DF8054004F00F082709D4
:1017A000B845C3DA3046FFF721FC9DF8032008F165
:1017B000010868F3030495428DF805401DD19DF89A
:1017C000045005F0C004402C05D0B4F180014B4218
:1017D00053EB010200E0012208B1457800E0054624
:1017E000C02C05D1AE4203D02C1C18BF012400E050
:1017F000002444EA020530B90AE0A2B910B96846EB
:1018000039460EE0154641788DF80310847802E0E1
:101810008DF8030004466846FFF7B0FB1DB168462B
:101820002146FFF72FFC6C46FFF782FB204604227F
:101830001F49FFF79FFC20461E490222FFF79AFC32
:1018400020E0DE1C266031E785423FF436AFFFF72B
:101850005FFC0446FFF7DCFB23783BB19DF80510E5
:10186000A67801F00F00B0423FF727AF9DF80020A7
:1018700022709DF8023063709DF80510C1F30300DB
:10188000A0701AE708B0BDE8F08100BFBDC2072014
:101890005CC2072099C10720BCC2072005C00720F1
:1018A0004DC2072000C00720A5C10720BEC20720E7
:1018B000BDC1072070C2072000231846094AD1186D
:1018C0004A780AB10130C0B22433902BF6D1064BCE
:1018D000597809B1421CD0B293F825300BB10130D0
:1018E000C0B27047BDC1072070C2072030B5404C60
:1018F0004FF48035E5613F4CA060E068C006FCD441
:101900003C488068C0B2002B6CD00B46002A5CD0EB
:10191000384C93F90050072AA56030DD93F9015047
:10192000083AA56093F90250A56093F90350A560A9
:1019300093F90450A56093F90550A56093F90650FA
:10194000A56093F907500833A5602A4CA5696D0777
:10195000FBD5A5680D70A5684D70A5688D70A4684D
:10196000CC70244CE568ED06FBD4A5680D71A56824
:101970004D71A5688D71A468CC710831C6E7032A42
:1019800018DD93F90150043AA56093F90250A5605F
:1019900093F903500433A560164CE568ED06FBD4BB
:1019A000A5680D70A5684D70A5688D70A468CC7091
:1019B0000431ABE70133013AE56815F0100FFBD1B4
:1019C0000C4CA46801F8014BA0E7094B4FF480329E
:1019D0009A6140B230BDE56815F0100FFBD1054C9F
:1019E0000133A4689342F0DACD56024CA560F2E7C9
:1019F00000C009200080084007B5002302A9012289
:101A000001F8013D00F01F001346FFF76FFF9DF93D
:101A100007000EBD07B502AB03F8011D00F01F0063
:101A200019460122002340F02000FFF75FFF0EBDA2
:101A300008B51720FFF7E0FFC0F3001008BD07202E
:101A40007021FFF7E7BF03460A466FF05F001946B3
:101A50000023FFF74BBF08B50020FFF7CDFF20F0B4
:101A6000010149B20020BDE80840FFF7D3BF0000E4
:101A7000024B4FF08072DA61704700BF20C009202E
:101A800008B50020FFF7B8FF40F0010149B200207F
:101A9000FFF7C0FF024B4FF080729A6108BD00BF94
:101AA00020C0092007202021FFF7B4BF00216FF0DC
:101AB0001E000A460B46FFF719BF000037B5054662
:101AC0000C46FFF7F3FF28462146FFF7BCFF0D4BFE
:101AD0004FF0807200209A61ADF80600BDF8061044
:101AE0004A1C93B2ADF8063033B906494FF0807006
:101AF000C861FFF7DBFF3EBDFFF79AFF0028EDD07E
:101B0000F3E700BF20C0092008B51720FFF774FFD6
:101B100000F0010080F0010008BD07204021FFF720
:101B200079BF08B503460A46612019460123FFF72D
:101B3000DDFEC0F3420008BD00216FF01D000A4623
:101B40000B46FFF7D3BE70B5044600200D4616467F
:101B5000FFF752FF14B100F0BF0102E040F0400077
:101B6000C1B215B101F0DF0201E041F0200216B16F
:101B700002F0EF0301E042F01003002059B2BDE88B
:101B80007040FFF747BF10B504460020FFF734FF51
:101B900014B900F0F7020DE0012C04D100F0FB00B5
:101BA00040F0080206E0022C14BF40F0080140F0AB
:101BB0000C01CAB2002051B2BDE81040FFF72ABFA5
:101BC00008B50020FFF718FF40F0020149B20020DD
:101BD000BDE80840FFF71EBF08B50020FFF70CFF67
:101BE00020F0020149B20020BDE80840FFF712BF13
:101BF00040F6DD13984206D840F66211B0F5166F34
:101C000038BF084600E01846A0F1600251B2052036
:101C1000FFF700BF10B504460620FFF7EDFEFA2CD3
:101C200000F0D70102D141F0200104E0B4F5FA6FD1
:101C300008BF41F00801062049B2BDE81040FFF797
:101C4000E9BE10B504460620FFF7D6FE032C34BFCC
:101C50002146032100F0F90040EA410251B206207A
:101C6000BDE81040FFF7D6BEF9284FF0FA0305D9BA
:101C7000B0F57A6F28BF4FF47A6000E01846B0FBE9
:101C8000F3F0421ED3B20F2928BF0F2141EA0311FE
:101C9000042049B2FFF7BEBE1130C0B2162806D8E4
:101CA000202928BF202140B249B2FFF7B3BE7047B8
:101CB000032804D004280CBF0221032100E00121E5
:101CC0000320FFF7A7BE03460A463020194600232B
:101CD000FFF70CBE03460A462A2019460023FFF7E9
:101CE00005BE000073B504460E461546FFF724FFF7
:101CF000FFF7DCFE2A4B4FF08072DA61FFF76CFFD2
:101D000000210A460120FFF71EFFFFF798FE022080
:101D1000FFF739FF3046FFF76BFF2846FFF77AFFE2
:101D20000320FFF78EFF02200321FFF773FE01203F
:101D30000021FFF76FFE03214FF4FA70FFF794FFC5
:101D400000202146FFF7A8FF12200021FFF762FEC6
:101D500013200021FFF75EFE14200021FFF75AFE3A
:101D600015200021FFF756FE16200021FFF752FE36
:101D70000C4908680A79009005208DF80420FFF7C7
:101D800097FF68460521FFF79EFF68460521FFF78C
:101D9000A1FFFFF715FF4FF4FA6003F007F97CBDD0
:101DA00020C0092069EF0100042938B5054603D198
:101DB000041C18BF012400E00024FEF745FC04B118
:101DC0002860204638BD000007B5084B002102AA54
:101DD000186842F8041D0B4604F034FA019818B153
:101DE00003494FF080520A600EBD00BFC4C20720F5
:101DF00004ED00E070B500238AB001930646007937
:101E000001AA00F0C001C0290CBF0F490F490023EF
:101E10000D683146284604F015FA044658B92246A2
:101E200002A9284604F0C8FA23462846314601AAEA
:101E300004F008FA0446019A1AB1054B4FF080509D
:101E4000186020460AB070BDC8C20720C0C2072073
:101E500004ED00E038B51C4C226822B90320202193
:101E600004F027F92060194D2A6822B901202021A9
:101E700004F01FF92860164D2C685CB9012021463A
:101E8000032204F016F9286020B121462246234699
:101E900004F040F9202040F6C3114FF4FA62FFF736
:101EA00021FFFFF7EDFD162001210A4A03F0ACF9EE
:101EB0000548006838B10549086820B1044A13682C
:101EC000181C18BF012038BDC0C20720C8C2072097
:101ED000C4C20720C91D010037B504460D46FFF7EF
:101EE00023FA237883420AD0E07840B907F0EEFB6A
:101EF00000F00301481CBD22504303F057F8FFF7E0
:101F0000B7FDFFF7A8FD2046A9B2FFF7D7FDFFF701
:101F1000C9FDFFF7B5FD04F099FE01280ED1084B6D
:101F2000002102AA186842F8041D0B4604F08AF941
:101F3000019818B1034A4FF08051116001203EBD55
:101F4000C4C2072004ED00E038B504460D46FFF793
:101F5000DBFD48B1A9B22046FFF7E3FDFFF7D4FD52
:101F600008B9FFF7DAFD012038BD000000B50C4BC1
:101F70000C488DB00C490D4A09930B900CAB002016
:101F800043F8102D0A9104900FCB8DE80F00084BF9
:101F90006A200121074AFFF76FFA0DB000BD00BFAC
:101FA000551E0100491F0100D91E0100A91D010095
:101FB000F51D01006EEF010008B504F047FE0F4B60
:101FC0000128586912D142020CD5FFF775FC0C4963
:101FD00000280CBF4FF0FF320122086800210B4699
:101FE00004F069F9BDE80840FFF704BB4302F9D5E6
:101FF000FFF762FC0028F5D108BD00BF00C0092032
:10200000C4C2072010B504F01DFF0C4B1A6822F063
:10201000E06020F0FF0119601C6844F004021A60BF
:10202000186840F0807119605C68002CFCDA034B82
:102030005C6804F019FFC4F30B1010BD00400340AE
:1020400030B504464DB2006894F9041053B22A46E4
:10205000BDE8304003F080BC1FB5002204AB90F90E
:10206000044023F8042D4AB2022100910068214661
:1020700003F07DFC9DF90C009DF80D3082B243EA1F
:10208000022188B204B010BD10B52A2104461922DD
:10209000FFF7D6FF0D22206894F9041003F06BFCC3
:1020A000B0F12A035842584110BD0000234910B531
:1020B0000A680B4612F010020ED08868C83088619A
:1020C0001F490A881F2A05D8DC6A1E4840F82240AA
:1020D00001320A8010202EE00B68D9072CD5184851
:1020E0000088012822D9174B411E04338A4207DA9F
:1020F00053F8041C1C680132611A43F8041CF3E70E
:10210000104A002350681A4600EB50008B420BDA4D
:102110000C4C54F82340844203D9012404FA03F4FC
:10212000224301339BB2F1E707490A60044B0022C6
:102130001A80024B0120186010BD00BF00800040D3
:10214000D0C20720D4C20720CCC2072070B502201D
:10215000144C012105F05CF8012501210220002624
:1021600005F06EF86560266705F0DAF942F2107343
:10217000B0FBF3F0E060A16A21F00702A262A36A5B
:1021800043F00600A062A6616169074B29436161C3
:10219000DA68042142F03000D860044B2846196008
:1021A00070BD00BF0080004000C0024000E100E0C0
:1021B000044A08B501F07F034171D25C0321FFF7A7
:1021C0003FFF08BD73EF0100044A08B501F07F032B
:1021D0008171D25C0221FFF733FF08BD73EF01006C
:1021E000642370B591FBF3F404FB13110A224CB283
:1021F00094FBF2F602FB164303F1300149B20546A7
:10220000FFF7E2FF092C02DC2846202103E006F15B
:102210003002284651B2BDE87040FFF7C9BF38B55B
:10222000044694F90410006803F0B2FB054688B137
:10223000204606210022FFF703FF20460721002247
:10224000FFF7FEFE20462E21FFF7B2FF20462E218B
:10225000FFF7BAFF284638BD01207047124B01F046
:102260000F0140F2131201709A610178CA0701D57B
:102270000122DA61037803F00201CAB212B10A4BFB
:102280000221D961027802F00401CBB213B10649F0
:102290001022CA61007800F00803DAB21AB10248CD
:1022A0004FF48071C161704720C009200120704740
:1022B000FFF7A8BE01207047044B5969C1F3813074
:1022C000C1F3412242EA8000704700BF20C00920CC
:1022D00010B5012104468122FFF7B2FE01222068D9
:1022E00094F9041003F047FB10F0600F0CBF0020BE
:1022F000012010BD38B500210446FFF7ADFE0121D5
:10230000812285B22046FFF79BFE102328B290FB66
:10231000F3F006F007F84FF0765106F057F8A16891
:1023200005F04CFF38BD000008B5FFF7E3FF054995
:1023300006F04CF8044906F0FDF84FF0844105F032
:102340003DFF08BD000010410000A040F0B504466C
:102350008DB00F46164621461D4602A800230122D5
:10236000019301F0A1FE044670B91DB102A82946EF
:1023700002F056F802A83946324601AB01F060FF80
:10238000044602A802F034F820460DB0F0BD00006B
:102390007F2816D931B1FF2812D80A49803831F880
:1023A00010007047074A8BB232F81120824203D0E6
:1023B00001318029F6D10B4603F18000C0B270478D
:1023C00000207047D4F101000023064A32F81310B0
:1023D00031B1884201D00133F7E7034830F81300E8
:1023E000704700BFD4F20100F4EF010010B50120E6
:1023F0000C4603F000FF2060003018BF012010BD24
:102400000120704710B5044604F020FC01280AD1D1
:1024100000210B46204640F6B83203F04CFF431E25
:102420005842584110BD012010BD10B5044604F0BB
:102430000DFC012807D1002120460A460B46BDE8C5
:10244000104003F067BE10BD10B5044603F010F94C
:1024500024B1012C06D100F05BFB01E000F0F8FC98
:10246000044600E0042403F017F9204610BD20B113
:10247000012801D100F044BB04207047F8B50446A0
:102480000F4616461D4603F0F3F83CB1012C0CD163
:10249000384631462A4600F0E3FA04E03846314631
:1024A0002A4600F019FD044600E0042403F0F4F885
:1024B0002046F8BDF8B504460F4616461D4603F003
:1024C000D7F83CB1012C0CD1384631462A4600F0F1
:1024D00067FA04E0384631462A4600F019FD044602
:1024E00000E0042403F0D8F82046F8BD70B5044697
:1024F0000E46154603F0BCF834B1012C0AD1304623
:10250000294600F027F903E03046294600F01AFD7D
:10251000044600E0042403F0BFF8204670BD00002C
:1025200010B5044604F0FCFF074BB0FBF3F10223A7
:10253000B1FBF3F2944202D30448036110BDB3F53A
:10254000807FF9D00233F3E740420F0000000340E0
:10255000044B9860DA68D206FCD40248816848B21D
:10256000704700BF0000034038B5FEF76DF800F576
:10257000FA754FF0FF30FFF7EBFF4FF0FF30FFF73A
:10258000E7FFC4B2FF2C07D0FEF75EF82A4600230F
:10259000994208BF9042F0D3204638BD38B5064C6A
:1025A0004FF00075E561FFF7DFFF044BA5611A7876
:1025B00042F00100187038BD20C0092006C0072075
:1025C00070B505460E46FEF73FF800F164044FF083
:1025D000FF30FFF7BDFFC0B2FF2809D1FEF734F886
:1025E00022460023994208BF9042F0D3002070BDDC
:1025F000FE28FBD1102E06D928464FF40071002288
:1026000002F0D4FF18E02C464FF0FF30FFF7A0FF98
:1026100020704FF0FF30FFF79BFF60704FF0FF30EE
:10262000FFF796FFA0704FF0FF30FFF791FFAB1957
:10263000E0700434A342E7D14FF0FF30FFF788FF8A
:102640004FF0FF30FFF784FF012070BD38B505461D
:102650000C46FFF789FFFF281ED160B2FFF778FF15
:10266000FD2C1BD04FF400714FF0FF32284602F0D2
:102670009DFF4FF0FF30FFF76BFF4FF0FF30FFF78C
:1026800067FF4FF0FF30FFF763FF00F01F00411FAF
:102690004A4252EB010038BD002038BD012038BD50
:1026A00038B5044620060D4607D577200021FFF7F0
:1026B000F7FF01283BD804F07F041D4B4FF0007258
:1026C0009A61DA61FFF750FFFF282FD160B2FFF760
:1026D0003FFF2816FFF73CFF45F30740FFF738FFA1
:1026E00045F30720FFF734FF68B2FFF731FF402CB6
:1026F00004D0482C0CBF8720012000E0952040B278
:10270000FFF726FF4C2C03D14FF0FF30FFF720FFDF
:102710000A244FF0FF30FFF71BFF01460029C0B22B
:1027200005DA013C14F0FF04F3D138BDFF2038BDB9
:1027300020C00920054A064913784869410154BF61
:1027400003F0FD0343F003031370704706C0072036
:1027500020C009207FB505460C46FFF7EBFF052D8D
:1027600018D12178012900F00F810AD3022940F005
:1027700009818848426982F08063C3F38061617097
:1027800002E1844C606910F0806440F0FD80FFF746
:1027900005FFF9E0804B1878C00700F1F7800E2D97
:1027A00000F2EA80DFE815F00F001900540058002D
:1027B000E800E800E800E800E800E800B200B70040
:1027C000B900C300D40073484FF00071C161FFF736
:1027D000CBFEFF3818BF0120CFE049200021FFF7D2
:1027E0005FFF054608B10120C7E068461021FFF7EA
:1027F000E7FE0028F7D09DF800109DF808308A0900
:10280000012A07D19DF80910481C00EB03239AB256
:10281000930246E09DF80700810001EB93129DF8BA
:102820000630501C9DF8052003F0030100EB8123C6
:1028300002F00F009DF80A109DF8092000EBD1105E
:1028400002F0030100EB4100C21F03FA02F328E08B
:102850004FF4007020805CE0504D2B7803F00400B2
:10286000C1B209B3CD200021FFF71AFF0028BAD169
:102870004FF0FF30FFF76CFE68461021FFF7A0FE17
:102880000028B0D030254FF0FF30013DFFF760FE4B
:1028900015F0FF05F7D19DF80A001022010902FA90
:1028A00001F32360284668E04920FFF7F9FE064659
:1028B000002898D168461021FFF782FE002892D0A8
:1028C000297801F00202D0B29DF80A1080B101F01F
:1028D0003F009DF80B10CA099DF80D1002EB400354
:1028E0008A09581C531E00FA03F02060304644E069
:1028F0009DF80B30C1F38402511C03F003025B0905
:1029000003EBC202531C4B43236036E023490A7891
:102910002270002031E0492000E04A200021FFF72A
:10292000BFFE00287FF45FAF204610211DE07A2013
:102930000021FFF7B5FE00287FF455AF05464FF0A4
:10294000FF30FFF705FE60550135042DF7D1E0E7B4
:10295000CD200021FFF7A4FE00287FF444AF4FF004
:10296000FF30FFF7F5FD20464021FFF729FED0F1AB
:10297000010038BF002000E00420064B4FF0007239
:102980009A6104E0042002E0002000E0032004B08B
:1029900070BD00BF20C0092006C00720D8C4072092
:1029A00070B5144605460E46FFF7C4FE002C4AD00B
:1029B000284B1A78D20748D4187800F00401CBB21B
:1029C000002B44D124484FF000722449C2610B7897
:1029D00003F00802D0B200B97602012C0DD15820C4
:1029E0003146FFF75DFE30BBFE212846FFF72EFE85
:1029F000D0F1010438BF00241DE013F0060F03D00E
:102A0000D7202146FFF74CFE59203146FFF748FEFC
:102A100088B92846FC21FFF719FE28B1013C14F0C3
:102A2000FF0405F50075F4D10020FD21FFF70EFE2F
:102A3000002808BF0124084B4FF00071201C996149
:102A400018BF012070BD042070BD032070BD02209E
:102A500070BD00BF06C0072020C00920D8C40720D1
:102A600070B5144605460E46FFF764FE002C3CD0B8
:102A7000204B1878C1073AD41F494FF000721F4B02
:102A8000CA61187800F00802D1B201B97602012CAF
:102A90000ED151203146FFF703FEF0B928464FF41E
:102AA0000071FFF78DFDD0F1010438BF002414E060
:102AB00052203146FFF7F4FD78B928464FF40071F3
:102AC000FFF77EFD28B1013C14F0FF0405F5007509
:102AD000F3D14C200021FFF7E3FD074B4FF00070CE
:102AE0009861201C18BF012070BD042070BD032018
:102AF00070BD00BF06C0072020C00920D8C4072031
:102B000008B5FFF717FE014B187808BD06C007206F
:102B10002DE9F341FFF70EFE554B1A7802F0020043
:102B2000C1B2002940F0A0800120FFF7F9FC0A247F
:102B30004FF0FF30013CFFF70BFD14F0FF04F7D11D
:102B40004C4B4FF000764020DE612146FFF7A8FD98
:102B5000012801D0002674E0FDF776FD4FF4D57111
:102B600000F57A774820FFF79BFD012841D14FF00F
:102B7000FF30FFF7EDFC01AA10550134042CF6D10B
:102B80009DF806000128E5D19DF80710AA29E1D19A
:102B9000FDF75AFD3C460025A94208BFA04206D3D6
:102BA000FDF752FDA94208BFA042D3D207E0E920B9
:102BB0004FF08041FFF774FD0028E9D1F0E77A205B
:102BC0000021FFF76DFD0028C4D104464FF0FF300F
:102BD000FFF7BEFC01AE30550134042CF6D19DF850
:102BE000043003F04002D0B200280CBF04260C26AB
:102BF00027E0E9202146FFF753FD01288CBF01267D
:102C000002268CBF4FF041084FF0E908FDF71CFD8C
:102C10003C460025A94208BFA0420BD3FDF714FD96
:102C2000A94208BFA0420CD350204FF40071FFF717
:102C300037FD06E040460021FFF732FD0028E5D1D0
:102C4000ECE70D490B4B4FF000720E709A6146B1E4
:102C50000748017801F0FE0202701820FFF760FCBF
:102C600001E0FFF79BFC024B1878BDE8FC8100BF38
:102C700006C0072020C00920D8C40720F8B51A4B89
:102C800005461C880E46B4F5007F174602D108465B
:102C900011460AE0B4F5807F09D108461146224664
:102CA000A84706F5807007F58071224619E0B4F553
:102CB000047F07D122F4FF72084622F001014FF48D
:102CC00000720EE0B4F5847F0CD1170A08464FF469
:102CD00080727902A847791C06F5807049024FF48A
:102CE0008072A847F8BD00BF54C3072010B5034643
:102CF00000295CDD93F900402D4A0729946030DDFE
:102D000093F901400839946093F90240946093F973
:102D10000340946093F90440946093F905409460F3
:102D200093F90640946093F9074008339460204A71
:102D300094696407FBD5946804709468447094683F
:102D400084709268C2701A4AD468E406FBD494680E
:102D5000047194684471946884719268C2710830F7
:102D6000C6E7032918DD93F901400439946093F90B
:102D70000240946093F90340043394600C4AD46891
:102D8000E406FBD49468047094684470946884707A
:102D90009268C2700430ABE701330139D46814F093
:102DA000100FFBD1024A926800F8012BA0E710BD7A
:102DB0000000034007B58DF80400080A0B0C8DF8DD
:102DC00006008DF8071001A804218DF80530FFF7E3
:102DD0008DFF0EBDF7B50D4C06464025080CE5618C
:102DE0000B0A17468DF8050003228DF8071001A87D
:102DF00004218DF804208DF80630FFF777FF304668
:102E00003946002202F0D2FBA561FEBD00C00920B8
:102E10000D4B0E4840226FF02801DA618160C268D4
:102E2000D106FCD4094B9B6808484FF0FF31816004
:102E3000C268D206FCD4054B98680306F4D5024A52
:102E400040219161C0B2704700C0092000000340DA
:102E5000F7B5FFF7DDFF07461B481C4D81781C4C7A
:102E6000002340260288238001A8EE618DF8061019
:102E70000321ADF80420FFF739FF9DF805009DF808
:102E800006301F28AE6117D1A3F12502022A13D8FC
:102E90001049252B0B7007F0010006D100280CBF4C
:102EA0004FF484734FF4807305E000280CBF4FF497
:102EB00004734FF400732380054A1188D1F1010097
:102EC00038BF0020FEBD00BFB4F4010000C00920DF
:102ED00054C3072056C307202DE9F0410646174684
:102EE0004FEA4128FFF794FF34460025C6EB08025D
:102EF000BD42224407DA21460448FFF7BFFE04F52D
:102F000000740135F2E70020BDE8F081D52D010005
:102F10002DE9F041064617464FEA412804460025B0
:102F2000C6EB0802BD42224407DA21460448FFF7F7
:102F3000A5FE04F500740135F2E70020BDE8F0813C
:102F40000130010008B507281CD8DFE800F00407AD
:102F5000131719191919FFF75BFF11E00A4B1878BD
:102F60002538C3B2032B9ABF084A52F823300023F6
:102F70005B0A04E04FF40070088001E001230B605D
:102F8000002008BD042008BD56C30720B8F4010086
:102F900030B591B003466C4600F140051868596899
:102FA000224603C20833AB421446F7D1064D4024F3
:102FB0009B200021EC61FFF7FDFE68462146FFF7EC
:102FC00095FEAC6111B030BD00C0092070B5074D51
:102FD0004024064600217720EC61FFF7EBFE3046E7
:102FE0002146FFF783FEAC6170BD00BF00C0092021
:102FF000024B1878003018BF0120704754C30720D7
:103000002DE9F7434FF0FF330D469046019381467B
:10301000FFF7FEFEFFF7ECFF0446A0B1164E402777
:103020001648F76101880320B1F5847F14BF4FF47F
:1030300000714FF480712943FFF7BCFE01A8042101
:10304000FFF754FEB7610C4E4022F2618220294600
:10305000FFF7B0FE48464146012202F0A7FA3CB114
:10306000019B02A8591C40F8041D0421FFF73EFEF5
:103070004020B061BDE8FE8300C0092054C3072092
:103080001FB501A802F0C8F99DF809209DF8083085
:1030900002F00F019DF8062003F01F004B0543EAE4
:1030A000004002F01F0140EAC1239DF805009DF891
:1030B000041000F03F0243EA4210BDF80A20C1F3B9
:1030C00044035106184301F10843184305B000BDFD
:1030D00010B50023D41A032C03D9CC58C4500433A0
:1030E000F8E702F0030422F00302801800238A1894
:1030F000A34203D0D15CC1540133F9E710BD82185B
:10310000904202D000F8011BFAE7704770B5164BE9
:103110000024224653F8085C65B10668B5420AD11E
:1031200053F8046C8568AE4205D11E88C588AE424E
:1031300001D105E0012401320C33032AEAD10CE06D
:1031400049B90A490C2000FB02135A89B2F5807F65
:1031500001D0002070BD102070BD002CF9D10229D3
:10316000F7D0122070BD00BF64C307205CC30720E6
:1031700070B51F4A0668002352F8084CB44208D1C3
:1031800052F8045C8468A54203D11588C488A5421E
:1031900010D001330C32032BEED1164A1368F3B969
:1031A0000C255D43541956518268C0886260002224
:1031B000208162810F4A0C2000FB0322508929B133
:1031C00008B1002070BD4FF4807201E0411C8AB24A
:1031D00008490C2000FB03104281581C70BDD368C5
:1031E00023B19369002BECD10223D9E70123D7E760
:1031F00064C307205CC307200138022813D80C4998
:103200000C2202FB00135B89B3F5807F03D01BB156
:10321000013B9BB200E00023504309184B8123B9C6
:10322000034A135001E0022070470020704700BF9E
:103230005CC30720002310B5044618464208E15C31
:1032400042EAC010013342180B2B02F0FF00F5D107
:1032500010BD0368024613B94FF0FF30704793F971
:1032600000003038082808D893F901103A2904D111
:1032700002330128136001DDEEE700207047F8B546
:1032800004460079F8B1256B04F1340760783946BB
:103290002A460123FFF70EF9A0B9636A2071E0699D
:1032A000EA1A824201D30020F8BDE678012EFAD94D
:1032B000E16960786D182A4639460123FFF7FAF86C
:1032C000013EF3E70120F8BDF8B50446FFF7D7FF4C
:1032D00005466DBB2378032B22D16679012E1FD1C1
:1032E00004F13407384629464FF40072FFF707FF10
:1032F00010494AF6552061630F4A216A6369A4F8B0
:1033000032022069C4F818224A1CC4F81C32C4F8DE
:1033100020022263607839463346FFF7CBF86571A7
:10332000002160780A46FFF7E1F8003018BF01205D
:10333000F8BD00BF525261417272416110B504463E
:10334000A8B103689BB11A788AB1D9888088814274
:103350000DD1D868FFF756F858B123685878FFF7B1
:1033600086F810F0010F0CBF0020032010BD0920CB
:1033700010BD0F2010BD38B5036B044699420D46B1
:103380000CD0FFF77CFF58B9607804F134012A466D
:103390000123FFF773F818B9256338BD002038BD45
:1033A000012038BD00234FF0FF3210B503710263D6
:1033B0000446FFF7E0FFA0B9B4F832124AF65523ED
:1033C000994210D1D4F86A20084B22F07F419942EB
:1033D0000AD0D4F8860020F07F42D01A18BF01200E
:1033E00010BD032010BD022010BD00BF4641540097
:1033F00050B10C2908D00B2906D0092904D00F2977
:1034000002D0C068FFF711B8704700002DE9FF41F6
:1034100000230360074608461546FFF71AFF061EFD
:10342000C0F2FD80854850F82640002C00F0F9805D
:10343000E068FEF7E7FF002800F0F5803C602178A7
:1034400079B16078FFF713F8C3070AD4002D00F0B4
:10345000E48000F00402D3B2002B14BF0A20002045
:10346000E8E00022F0B222706070FEF7EDFFC107C5
:1034700000F1DB802DB100F00403D8B2002840F049
:10348000D68000212046FFF78DFF01281CD10022A5
:1034900004EB820595F8F61105F5F97601B1B168EE
:1034A0004DF802100432102AF2D100265DF80650C1
:1034B0002DB120462946FFF775FF08B90BE0022021
:1034C0000436102EF2D100E00025032800F0B18070
:1034D00008B10D20AEE0B4F83F30B3F5007FF8D16D
:1034E000B4F84A3003B9A36D94F84460E361701EE8
:1034F0000128E670EDD894F84100A0700028E8D0CB
:10350000411E0142E5D1B4F845100A072181E0D1FE
:10351000B4F8472002B9626DB4F842C0BCF1000FA4
:10352000D7D006FB03F80CEB11174744BA42D0D3AF
:10353000D21BB2FBF0F2002ACBD040F6F576B242B5
:1035400006D94FF6F57082428CBF0326022600E0B2
:103550000126023205EB0C007F19032EA2612562C1
:103560006062E76205D10029B3D1206E9100A062AC
:103570000EE00029ADD008EB0001022EA16201D1BE
:10358000510005E00320504302F0010202EB50011C
:1035900001F2FF12B3EB522F9BD34FF0FF33802188
:1035A000032E6361236161711ED1B4F864000128A8
:1035B0001AD12046691CFFF7DEFEA8B9B4F8322202
:1035C0004AF655239A4260710ED1616B1C488142C4
:1035D0000AD1D4F818321B4A934205D1D4F81C12F0
:1035E000D4F8200261612061174A26701388591CA3
:1035F000164B88B210801A68E080A24201D10021E7
:103600001960D868A04202D1104A0021D1609B699C
:10361000A34202D10D490020886100200AE00B205E
:1036200008E00C2006E00F2004E0032002E00A205E
:1036300000E0012004B0BDE8F08100BF80C3072096
:10364000525261417272416158C307205CC3072026
:10365000836902399A1E914204D28278C06A02FBC1
:1036600001007047002070470129F8B504460D4657
:1036700048D98369994245D20178022927D0032984
:1036800030D001293BD1426A05EB550602EB5621A9
:10369000FFF771FE002832D1636AF005013604EBB2
:1036A000D05703EB5621204697F83470FFF763FE9E
:1036B00028BBF60504EBD65494F83410EA0747EA21
:1036C000012001D50009F8BD0205100DF8BD426AC0
:1036D00002EB1521FFF74FFE88B92D0604EBD554F8
:1036E000A08EF8BD436A03EBD511FFF744FE30B955
:1036F0006D0604EBD554616B21F07040F8BD4FF0BE
:10370000FF30F8BD0120F8BD70B504460D46E180DC
:103710008168012901D1022070BD03689A69914234
:10372000F9D271B91878032801D1996A49B9198970
:103730000020A942E060EED99B6A03EB15122261DA
:1037400019E09E783601B5420ED32068FFF78CFF52
:103750000146013018D00129DDD923689A699142C8
:10376000D9D2AD1BADB2EEE7E1602068FFF770FF84
:1037700000EB15112161206805F00F0500EB4511E4
:1037800034316161002070BD012070BD0129F8B5A0
:1037900004460D4616465ED9836999425BD201788C
:1037A000022939D0032942D0012950D1426A05EBC0
:1037B000550702EB5721FFF7DEFD002848D1F80539
:1037C000C20D15F00105F3B207D0A11891F834002D
:1037D00000F00F0141EA0313DBB2616A0120A21875
:1037E0000137207182F83430204601EB5721FFF772
:1037F000C2FD68BBFF05FA0D15B1C6F3071607E059
:10380000A31893F83410C6F3032621F00F073E43A4
:10381000A71887F834601BE0426A02EB1521FFF716
:10382000AAFDA8B92D0604EBD555AE8610E0426A74
:1038300002EBD511FFF79FFD50B96D0604EBD5558E
:103840006B6B03F070410E436E63303500E0022075
:1038500001232371F8BD0220F8BDF8B504460F46D8
:1038600031B906696EB18069864228BF012609E038
:10387000FFF7FAFE01283DD9A36998423BD33E46A3
:1038800000E001263546A16901358D4204D3012EA1
:1038900001D80020F8BD022520462946FFF7E4FEA6
:1038A00048B1411C02D14FF0FF30F8BD012821D0B2
:1038B000B542E8D1EDE7204629466FF07042FFF7A8
:1038C00065FFA8B957B9636925615A1C0ED06079A4
:1038D0005A1E40F001016261617107E020463946DD
:1038E0002A46FFF753FF0028EDD001E02846F8BD37
:1038F0000128D8D00120F8BD2DE9F843C688044638
:10390000701C86B20F4616B90420BDE8F8832369FF
:10391000002BF9D016F00F085AD1591C2161E1682B
:10392000206819B90189B142EED951E08278531E5D
:1039300013EA16124CD1FFF797FE0128054602D86C
:103940000220BDE8F883431C02D10120BDE8F883C2
:10395000206881698D4235D3002FD5D0E168FFF70B
:103960007CFF054600283CD00128E9D00130ECD08E
:103970002068FFF784FC07460028E6D12068394616
:1039800034304FF40072FFF7BAFBD4F800902946A8
:103990004846FFF75DFEC9F8300020688278BA42D9
:1039A0000DD9012101712068FFF769FC0028CCD1F5
:1039B00020680137026BFFB2531C0363EDE7036B12
:1039C000DF1B0763E56020682946FFF741FE2061A1
:1039D0002068E68000EB4812343262610020BDE8C6
:1039E000F8830720BDE8F8832DE9F84F4FF0FF0971
:1039F00005464C4628682969FFF7BDFC804600282B
:103A00007DD16E693778002F73D0F27AE52F02F0FE
:103A10003F0365D002F00800C1B211B10F2B5FD196
:103A200001E00F2B46D1D5F820B0BBF1000F58D0E4
:103A300007F04000C1B231B1EC8896F80D9007F064
:103A4000BF07AC8401E0A7424AD1737B4B4547D105
:103A500032780D2122F04000441E4C434FF0010803
:103A60004FF0000A274B1AF80320B05AB8F1000FA4
:103A70000BD0FEF7A9FC7F2C804631D83BF8140010
:103A8000FEF7A2FC0134804502E04FF6FF71884248
:103A900026D10AF1010ABAF10D0FE3D1307800F016
:103AA0004003DAB242B3B8F1000F25D03BF814401E
:103AB00014B315E024B93046FFF7BCFB81451ED096
:103AC0004FF6FF72AA84AA69D37A13F0010307D1D3
:103AD000F05CD15C0133884202D10B2BF8D10EE0AF
:103AE000FF2428460021FFF707FF8046002881D0E9
:103AF00005E04FF0040802E0791ECCB2F1E7404641
:103B0000BDE8F88FA2F501002DE9F74F91F90030DB
:103B100006462F2B894601D05C2B01D109F1010902
:103B20000024B46099F800001F286DD83046214663
:103B3000FFF7EAFD74611FE108F101083BF8182066
:103B4000202AF9D02E2AF7D0B8F1000F01D044F086
:103B500003043B4633F8020D2E2801D0013DF9D174
:103B600000224FF0080A17463BF8183008F1010808
:103B7000002B40F09880B3691978E52901D1052020
:103B80001870BAF1080F01D1BA00D7B207F00C03D0
:103B90000C2B00F0D28007F00301032900F0CD8048
:103BA00004F00200C2B24AB907F00307012F08BFB0
:103BB00044F01004042B08BF44F00804B3693046F5
:103BC000DC720021FFF7A0FD10B93046FFF70CFFB3
:103BD000B169CA7A002840F0B38002F00403D9B278
:103BE000002940F0C9807069C27A02F01003D9B28E
:103BF000002900F0AF803468458B2778032F04BF7D
:103C0000808A45EA0045B560C84698F8001009F179
:103C100001094AB22F2AF7D05C2AF5D0D6F820B095
:103C2000002518F905406F1CA3B21F2B1DD92F2B9F
:103C30001BD05C2B19D0812F00F09880D8B20121C5
:103C4000FEF7A6FB002800F091807F2807D84B499B
:103C500011F8012F1AB153B28342F9D186E00BEB70
:103C6000470424F8020C3D46DBE708EB07091F2B4D
:103C700094BF042400240BEB4500002D76D030F8CF
:103C8000021D202901D02E2901D1013DF5E74FF079
:103C900000082BF81580B06920210B220BEB45079B
:103CA000FFF72DFA4AE7202B03D02E2B04D1A8458D
:103CB0005ED044F0030457E7524502D2A84515D11F
:103CC00056E0BAF10B0F04D144F003044FF00B0A95
:103CD00051E7A84503D044F003043FF64CAFBF00C2
:103CE000FFB2A8464FF00B0A08223DE77F2B0ED902
:103CF000184600210192FEF74BFB019A034618B1CA
:103D00001F49081810F8803C44F0020433B11D48E4
:103D100010F8011F31B149B29942F9D144F00304BE
:103D20005F2306E0A3F1410081B2192914D847F0BE
:103D30000207B0698354013216E744F002042FE70A
:103D4000042819D102F00400C2B2002A14BF0420D2
:103D5000052011E005200FE0A3F1610081B21929CF
:103D6000E7D8203B47F001079BB2E2E7062003E0DB
:103D7000BAF10B0FB3D1A7E7BDE8FE8FDDF4010068
:103D800022F50100E6F40100012970B504460D4654
:103D900024D98369994221D2A069854205D220465F
:103DA0002946FFF761FC064608B9002070BD0128CE
:103DB00014D0411C10D0204629460022FFF7E6FC13
:103DC00068B961694A1C05D065794A1C45F0010350
:103DD000626163713546DFE7012070BD022070BD6E
:103DE00073B51C4616460B220546FFF771F9052CE4
:103DF0000AD9B21E32F8020F630843EAC43453886A
:103E000021188CB2002BF5D1072304F00F0000F12C
:103E10003002392A88BF00F137020DF80320013B38
:103E20002409F2D102A9C8187E2200F8082C9C426D
:103E300004D0295D202901D00134F8E7072B05D8EB
:103E400002AAD11811F8080C013300E020202855EF
:103E50000134072CF2D97CBD2DE9FF418669D0F8E9
:103E600020800C220446314601A8FFF731F99DF865
:103E70000F30D80722D50020F0720127206230468B
:103E800001A942463B46FFF7ABFF20460021FFF762
:103E90003BFC054650B92046FFF7A6FD054628B96C
:103EA0000137BFB2642FEAD10725A7E0042D40F007
:103EB000A5809DF80F10F172C4F820809DF80F20A6
:103EC00002F00205EBB20BB901250CE0002038F836
:103ED000101011B1451CA8B2F9E700F119050D2227
:103EE00095FBF2F39DB220460021FFF70DFCA8B927
:103EF000064620682169FFF73EFA78B961690A78B9
:103F0000E52A00D01AB90136AE4201D10BE00646CF
:103F100020460121FFF7F0FC0028EAD0042814BF56
:103F2000054607256AE0013EB6B2002E4DD0E08876
:103F3000831B99B22046FFF7E7FB054600285DD1B9
:103F4000A069FFF777F9074620682169FFF713FAA0
:103F500003460546002851D162690F21F5B2D4F815
:103F600020E0D17210735083691E0D2041435773B6
:103F700018464FF6FF7C6345DFF888C018BF3EF84F
:103F8000113010F80CC018BF013122F80C3001308C
:103F90004FF6FF7C002B08BF63460D28E9D163452F
:103FA00002D03EF8113013B946F04005EDB215705D
:103FB000216801220A7120460021FFF79DFC054679
:103FC000E0B9013EB6B2002EBED120682169FFF7EC
:103FD000D2F9054690B9606929462022FFF78FF88B
:103FE0006069A1690B22FFF773F8A3696069D97A48
:103FF000012301F01802027320680371284604B0FF
:10400000BDE8F081A2F5010073B5019002A840F867
:10401000081D68461646FFF71CF9051E3BDB204BC2
:1040200053F82540CCB11F480268A24201D10021BB
:104030000160C368A34202D11A4A0021D16080699D
:10404000A04202D1174B00219961E068FEF7D8F930
:1040500008B9022422E000222270019929B9019CAA
:104060000F4840F825404CB918E0002401F80C4BEB
:10407000E8B2FEF7BBF90028EBD0F0E7012E0CD137
:10408000694601A80022FFF7C1F9044621460198BC
:10409000FFF7AEF902E00B2400E0002420467CBDCF
:1040A00080C307205CC307202DE9F043D1B0019104
:1040B00090460546002800F0AD800023036001A96A
:1040C00005A802F01E02FFF7A1F90746002840F0FC
:1040D0009C8002A80FA90B900D9105A80199FFF7EC
:1040E00013FD08F01F060A9C50B944B116F01E0FCC
:1040F00005A80CBF00210121FFF708F800E0062009
:1041000018F01C0F4AD090B104280BD14B4C2068FA
:10411000002800F08180E16800297DD0A369002B90
:104120007AD0122046F008060A9C50B17FE0E37A6C
:1041300013F0110F78D108F004085FFA88F2002A12
:104140006ED106F00802D0B2002836D0FEF798FFF4
:104150000021C4F80E000598E172E1610378B4F81B
:104160001A80032B08BFA38A618308BF48EA03486B
:104170000122A1820271B8F1000F1ED04146D0F891
:104180003090FFF701FE002851D1059808F1FF316A
:1041900001614946FFF7EFF878B148E0002846D1C1
:1041A000E37A03F01002D0B200283BD108F00208F5
:1041B0005FFA88F109B1DB0736D406F00800C3B214
:1041C0000BB146F02006059A16F0FE0F116B05A8FC
:1041D000E9612C620CBF00210121FEF7C9FF686272
:1041E00020B30020059BAE71E8711978628B03291A
:1041F00002D1A08A42EA00422A61E2692B60DB8890
:104200000021EA60A960A961AB8005983946FFF7F3
:10421000EFF80EE009270CE005A8FFF71DFE81E787
:10422000082004E0042002E0072000E00220074606
:10423000EBE7384651B0BDE8F08300BF5CC3072010
:104240002DE9F74F9A460023CAF800300446884605
:104250001746FFF773F80546002851D1E17921B1DF
:104260002068FFF7C5F8E5798DE0A079C10705D48E
:1042700020680721FFF7BCF8072584E0E168A26801
:104280008E1AB74238BF3E4627E0770A00EB0B0C88
:1042900059D099F8022007EB0B01914288BFCBEB74
:1042A000020799F8010062464146FBB2CDF804C00E
:1042B000FEF7E4F8DDF804C0002853D1216808793E
:1042C000002833D17F02A168DAF80030C819DA1962
:1042D000A060B844CAF80020F61B002E4FD0A16899
:1042E000CB0532D1206883785A1E02EA512313F09D
:1042F000FF0B0FD139B92069012808D80225E571D3
:10430000206829463DE06169FFF7AEF9F4E7421CF9
:1043100028D06061D4F8009061694846FFF798F9A9
:104320000028B2D10225E5714846EAE70B6BCCEBD9
:104330000302BA42C6D208EB422034314FF4007275
:10434000FEF7C6FEBEE7C4F818C0A768F805C10DA1
:10435000C1F500772068A169BE4238BF3746FFF734
:104360000AF808B10125CAE7A2682368D00503EB63
:10437000D051343140463A46FEF7AAFEA3E7206802
:104380003146FFF735F82846BDE8FE8F70B5044684
:10439000FEF7D4FF054628BBA37903F02000C1B285
:1043A00001B32068E169FEF7E6FF0546D0B9266A49
:1043B000F27A42F02003F372E068F06121690A0C9E
:1043C0007183B282FEF75CFE7582C6F81600A5798D
:1043D000206825F020030121A37101712068FEF7F8
:1043E00073FF054620682946FFF702F8284670BD8E
:1043F00070B50546FFF7CAFF044678B92846FEF7B0
:104400009DFF0446064648B9686AFEF7F5FE314648
:1044100004462868FEF7ECFF04B92C60204670BD06
:10442000F8B504460F46FEF789FF0646002832D14C
:10443000E17921B12068FEF7DBFFE67979E0E568F4
:10444000AF4201D83D4605E0A37903F00200C1B2B6
:104450000029F7D10022A368A2600DB9002555E01C
:10446000206887787F026BB1013B691EB1FBF7F1D1
:10447000B3FBF7F2914205D378420340A360ED1AF3
:1044800061690FE0216961B9FFF7E7F90128014689
:1044900003D10226E671206834E0421C18BF206177
:1044A0001CD061610029D9D00AE00129F1D9206826
:1044B00082699142EDD2A3686161D819A060ED1BB9
:1044C000BD4212D9A379206803F00202D3B23BB1F6
:1044D000FFF7C3F9014638B14B1CE6D10126D9E7F5
:1044E000FFF7C2F80146F7E73D46A2685319EA050F
:1044F000A360B3D027683846FFF7AAF820B9022690
:10450000E6713846314612E000EB5525A168CA0530
:1045100003D0A069854218BFA561E268914204D921
:10452000A379E16043F02001A17120680021FEF72A
:104530005FFF3046F8BD2DE9F34702AB43F8040DA9
:1045400014461046884600221946FEF75FFF24688D
:10455000054600284CD1A7696069BA1E904202D86E
:10456000C8F8000044E094F80090B9F1010F10D1B0
:1045700002272E4639462046FFF776F8411C2BD0FD
:1045800001282BD000B90136A16901378F42F1D340
:1045900027E0616A2B462A462E4652B9204601F191
:1045A000010AFEF7E8FED8B904F1340351464FF48E
:1045B0000072B9F1020F05D1188800B90136023333
:1045C000023A06E0186820F0704000B90136043362
:1045D000043A013FE1D104E0012502E0022500E0B8
:1045E00005466379666143F001026271C8F80060B4
:1045F00020462946FEF7FCFE2846BDE8FC87000061
:104600002DE9F04F89B008AB43F80C0D18460F4662
:104610001546FEF71EFE0028C0F20E82012F00F2A2
:104620000D82691E11EA050340F00882C04A52F863
:104630002040002C00F00482C6B223703046FDF703
:1046400003FFC30700F1FE8100F00400C1B200299E
:1046500040F0FA813046012107AAFDF747FF08B173
:1046600001200CE2079B7F2BFAD9002F0CBF4FF0E3
:104670003F084FF00008C8EB030307936DB94FF4F0
:10468000FA62B3FBF2F1AB4830F81520914201D247
:104690000135F8E7A84931F815505FEA552A05D0E9
:1046A000BAF1800F28BF4FF0800A01E04FF0010AF5
:1046B000B3FBFAF940F6F575A94540F2C78105F557
:1046C0007045A94540F2D58109F182024FEA820185
:1046D00001F1FF3500204FEA5529039003254FF0E3
:1046E000200C03990CEB080201EB090B9344C8EB77
:1046F0000A00029200EB0B02934201D20E20BEE1AF
:104700003046032106AACDF800C0FDF7EFFEDDF824
:1047100000C020B9069B13B1B3F5004F01D90121A8
:1047200006910698421E414202EB0B030B40CBEB75
:104730000300032D069004D1029A844413180293B7
:1047400000E081440798039BCCEB0001C9EB010218
:10475000D11AB1FBFAF2022D049205D1049940F668
:10476000F5729142CAD911E0032D07D1049B4FF68F
:10477000F5708342C2D94FF00C0B0EE0012D05D12C
:10478000B0F5803F08D34FF0060B06E0B0F5803F50
:10479000F9D24FF0040B00E0AB46002F3ED104F1FC
:1047A0003403184639464FF40072CDF800C0019327
:1047B000FEF7A5FC079943F6C16208EB0103B3FBC2
:1047C000F2F3FE2084F8F70198084FF0010E40F054
:1047D0003F0284F8F93184F8F3E184F8F4E184F8D5
:1047E000F57184F8F6B184F8F821019A0693C4F8BB
:1047F000FE113F234AF65521C4F8FA31A4F83212CB
:104800003046114673463A46FDF754FEDDF800C0C7
:1048100000287FF425AF4FF0F80B01E04FF0F00BCC
:1048200004F13407002138464FF40072CDF800C07F
:10483000FEF765FC0B2238464049FEF749FC079A13
:1048400084F841A0DDF800C00123032D14BF4FF40C
:10485000007100214FF40070B2F5803F34BFA4F81E
:1048600047206265A4F83F0084F844303F20FF23CE
:10487000A4F842C0A4F8451084F849B0A4F84C004C
:10488000A4F84E30C4F85080FEF7FAFB032D0690D2
:1048900015D1C4F8770002200621206601232920C3
:1048A0008022A4F8661084F87600C4F85890A4F822
:1048B000643084F8742004F17B0021490CE08021ED
:1048C00084F8581029221F49C4F85B00A4F84A90C4
:1048D00084F85A2004F15F001322FEF7F9FB4AF630
:1048E0005523A4F832323046394642460123FDF7BB
:1048F000E1FD00287FF4B4AE032D06D130463946E1
:1049000008F106020123FDF7D5FD002138464FF4DA
:104910000072FEF7F4FB032D18D00B4B012D18BFCE
:104920006FF0FF0343EA0B010691616318E000BFDB
:1049300080C30720B0F50100C8F40100EEF40100C7
:10494000FAF401000EF5010000FFFF006BF0FF011B
:104950004FF0FF326FF0704006916163A263E06335
:10496000029A39463046012302F1010BFDF7A2FD00
:10497000014600287FF474AE38464FF40072FEF70B
:10498000BEFB01200690069B4B4513D20BF1010E96
:10499000304639465A460123CDF800E0FDF78AFD3E
:1049A000DDF800C000287FF45BAE0699E3464A1CA0
:1049B0000692E8E70399D946032D18BF8A460BF102
:1049C000010E304639465A460123CDF800E0FDF786
:1049D00071FDDDF800C000287FF442AE0AEB090249
:1049E0006245E346EBD1032D1DD104992548264BA2
:1049F0004A1E6063C4F8183202204AF65523C4F8F0
:104A00001C22C4F82002A4F83232394608F101020F
:104A100001233046FDF74EFD3046394608F10702C6
:104A20000123FDF747FD002130460A46FDF75EFDF4
:104A3000003018BF012022E00B2020E013201EE0F0
:104A40000C201CE003201AE00A2018E0032000FBE1
:104A500009F202F101014FEA510B0BEB000E0125A7
:104A60000EF2FF1920204FEA592903904FF0010C54
:104A700037E609F1020C4FEA4C0E0225F0E709B0C7
:104A8000BDE8F08F52526141727241612DE9F041EF
:104A9000069E0D461746984610B90120BDE8F081E4
:104AA0000029FAD00468002CF7D020683946424625
:104AB0003346A84708B16468F5E7BDE8F08113B54F
:104AC0000C4602AA00210B4642F8041D006801F0C2
:104AD000B9FB019B1BB1206840F00101216001205E
:104AE0001CBD30B585B0044601A80D4600F094FC0D
:104AF0009DF80630227903F01F0082421DD19DF8F7
:104B00000510627901F03F039A4216D19DF8040026
:104B1000A17900F03F0291420FD12068002104AB3F
:104B200043F8101D00680B466A4601F08BFB0099A4
:104B300019B12A6842F001032B60012005B030BD95
:104B400030B5224B87B01A78214C42F00100187022
:104B5000002503A8029500F05FFC1E492B46009536
:104B6000206802AAFFF792FF9DF80C1011F03F0396
:104B70001BD100936068174902AAFFF787FF9DF8D1
:104B80000D3013F03F0310D1009302AAA068114921
:104B9000FFF77CFF9DF80E2012F01F0305D1009354
:104BA000E0680C4902AAFFF771FF00230A4800934E
:104BB0000A49006802AAFFF769FF029919B1084B78
:104BC0004FF080521A6007B030BD00BF0040024075
:104BD0008CC30720BF4A010088C30720E34A0100B5
:104BE00004ED00E070B50E46044614F8013B33B303
:104BF000284B186882689568013D002D956014DA8D
:104C000091698D420CDB106814F8012C0270186851
:104C10008268136819780A2904D0591C1160E4E7E6
:104C200014F9011C07F0C6FADFE7126814F8011C3A
:104C30001170186883681A68511C1960D5E726B18D
:104C40003046BDE8704004F0F7BC124B186882682B
:104C5000916801390029916013DA9469A1420BDB54
:104C600012680A21117018688268136819780A2975
:104C700003D0581C106070BD0A21BDE8704007F0D9
:104C800099BA12680A2010701B6899680A68501C4B
:104C9000086070BD84C007201B4B70B50E461978A4
:104CA000002930D0044614F8010B30B3174B1868B4
:104CB00082689568013D002D956014DA91698D42F6
:104CC0000CDB106814F8012C0270186882681368F5
:104CD00019780A2904D0591C1160E4E714F9011C61
:104CE00007F068FADFE7126814F8011C1170186801
:104CF00083681A68511C1960D5E726B13046BDE8B3
:104D0000704004F099BC70BD9CC3072084C007208C
:104D10003A4B2DE9F3411A6804460069824236D1C4
:104D200037480021FFF7B8FF606A3649FFF7B4FF44
:104D300000213548FFF7B0FF344900260D6837469B
:104D40008DB1D5F800800136D8F8003040461A6998
:104D50006D6890470028F3D1D8F824002C49FFF75C
:104D600041FF0127ECE737B12A482946FFF73AFF10
:104D700001F09CFC0BE03D46B54208D0264F0021D7
:104D800038680A460B4601F0C5F90135F4E7224EB2
:104D9000002130684FF0FF320B4601F08CFA01F031
:104DA00099FC00260190606818B1E16801F038FBB9
:104DB000A060236820465A69A16A9047074630B927
:104DC000606A1649FFF70EFF384601F043FEA069FE
:104DD000411CA16101F07EFCB04207D901F07AFCD0
:104DE000256A4619206901F01BFF6061E16900290D
:104DF000D9D001A801F098FDD5E700BFA4C30720D2
:104E0000C6F50100CAF50100F7F50100A8C30720A7
:104E100024F601003DF60100A0C3072065F601005D
:104E2000F0B52D4C85B0216821B92C48FFF7DAFE8A
:104E300001264EE02A480021FFF72EFF00252468B6
:104E40002E4674B1276801353A683846936864681D
:104E500098470028F5D1786A2249FFF7C3FE01265A
:104E6000EFE721482146FFF717FF2846214601F0CA
:104E700048F91E4B002808BF01261860164805682F
:104E8000CDB130CD94F83000E26A002104F1100376
:104E900000900193029103911548616AC2F38F0259
:104EA000234601F013FB0028EAD1606A1149FFF79D
:104EB00099FE0126E4E708490F4A0B68126833B1EE
:104EC00009CBC16AA94284BF02690D46F7E70A4BC4
:104ED0001A60304605B0F0BDA8C3072095F6010062
:104EE000C3F60100DEF60100F2F60100A0C30720C0
:104EF000114D010009F70100A4C3072010B50446B5
:104F000040B10820FBF7A8F920B1034A04601168FA
:104F10001060416010BD00BFA8C30720124B10B540
:104F200018700846FFF77CFF044668B921460F4811
:104F3000FFF7B2FE01F014FF01F08EFB0C48214692
:104F4000BDE81040FFF74EBE00210A48FFF74AFEB9
:104F500040F6B83000F046F84FF08040AA22002119
:104F60000272017010BD00BF9CC3072024F701002E
:104F70003FF7010063F7010070B50B4D416205601A
:104F800004990025456085604FF47A760561456196
:104F90008561C5614EF660250446C6600562816282
:104FA000C26280F8303070BD68EE01004FF04023DF
:104FB0009A680A21B0FBF1F09B6882189A4204D2E9
:104FC0004FF0402188689042FAD84FF0402399680A
:104FD0009142FAD3704708B501F038FE431E58429B
:104FE000584108BD10B50446FFF7F5FF20B1204633
:104FF000BDE8104001F06EBC4FF47A706043BDE82C
:105000001040FFF7D3BFC36930B55A0703D500F18D
:10501000300221230BE05A0503D500F14002412361
:1050200005E013F480220DD000F15002812301F13C
:10503000100451F8045BA14242F8045BF9D14360CB
:10504000012030BD104630BDF0B501391446C2070D
:1050500085B00646CDB227D5A368DB071CD504F181
:1050600020036F4604F1300E186859683A4603C2AF
:10507000083373451746F7D19DF80310042001F05B
:105080008003DAB201996060002A40F2FF7018BF15
:105090006FF0604001400191134B002253F825004E
:1050A0006946134601F0CEF840F2026232405AB12E
:1050B0000E48694650F82500002201F07DF918B12C
:1050C00020466946FFF79FFF300603D5084951F88F
:1050D00035309847310704D5054A02EBC5056868A5
:1050E000804705B0F0BD00BFBCC30720C4C3072084
:1050F000ACC307200B4B10B5D3F8C440A00405D5B2
:10510000094AD06810B10121FFF79EFF610407D55D
:10511000064AD06820B10221BDE81040FFF794BFD5
:1051200010BD00BF00C00F4000400440008004409C
:1051300008B5804708BD000070B54FF04026B16843
:105140000A256943064C074B2068074A1960091A6B
:105150000648116004F058FAB1684D43256070BDEF
:1051600078C107207CC1072074C1072019EF010016
:1051700070B54FF04026B1680A256943064C074BCD
:105180002068074A1960091A0648116004F03CFAC1
:10519000B1684D43256070BD84C1072080C10720E0
:1051A00070C1072001EF0100114B10B51A685207BA
:1051B0001DD5104943F6FF700A68D862012000FA35
:1051C00002F10D4C6369194203D00C4B1868FFF7CC
:1051D000AFFF0B4A01211368606901FA03F2024232
:1051E00005D008480068BDE81040FFF7A1BF10BD1A
:1051F000808002400CC0072040C00920DCC407208A
:1052000008C00720E0C40720124B10B51C68A0425C
:1052100001D1114B04E0114B1C68A04201D1104B8D
:105220001A60012404FA00F00E4B1A7822EA0002F8
:105230001A7021B90C490A691043086105E0012977
:1052400003D109494B6918434861084B4FF40010DA
:10525000186010BD0CC00720DCC4072008C0072060
:10526000E0C4072000C009208080024000E100E087
:1052700070B5184B044618485D69026C0E4622F45E
:1052800070010164036C05F4406543F4200202647C
:10529000816E41F440638366026822F4700101600C
:1052A0000368032143F4200202601A2001F0C8FFC2
:1052B00002F036F9B5F5406F014606D12046C9081F
:1052C0003246BDE8704000F0A3BB012060710020B1
:1052D00070BD00BF00C0092000C0024010B50349E6
:1052E000044600F05FFB204610BD00BF00000A40EE
:1052F00038B5074C236833B91C20FAF7ADFF0546D3
:10530000FFF7ECFF25602068BDE8384000F0BCBC2A
:1053100044C1072070B51D4D04462B681646017028
:10532000CBB902F0FDF8B0FBF6F0286001210620B1
:1053300001F06EFF0620012101F082FF14492D6863
:105340004A69092042F002034B618D6148600A6F8F
:1053500022F00F030B6721780322480002FA00F2C3
:105360000C4B09311D6925EA0205012202FA00F001
:1053700002FA01F21D611D6928431861A3F5A033EB
:10538000D86C0243DA64204670BD00BFCCC307204E
:105390000080014000C0024038B505460C46084672
:1053A0001A4903F0CFF900282ED1194B186802F0E2
:1053B000B5FF0146204603F009F8144903F0BAF896
:1053C00003F0F0F92A78052A1ED8DFE802F0030678
:1053D000090C0F120F4BD8610DE00E4908620AE06C
:1053E0000C4B586207E00B49086404E0094B586411
:1053F00001E0084988640132012000FA02F2054BFD
:10540000196D0A431A6538BD002038BD0000C84236
:10541000CCC307200080014010B5044686B00E4B77
:105420006A461868596803C2986810601868596815
:1054300003AA03C299686846116003A90C2203F00D
:1054400055FE0028EBD16B4603CB206018686160E5
:10545000A060204606B010BD144002400278164BF2
:10546000C2F3050183F820104278C2F3050183F8E6
:1054700024108278C2F3040183F82810C278C2F3A2
:10548000020183F830100279C2F3040183F82C1072
:105490004279C2F3030183F83810C279817902F0AE
:1054A0000F0241EA02219987017A407A00F00F0247
:1054B00041EA022199867047004002401FB5012150
:1054C000092001F0A5FE314B01221A7201A8FFF755
:1054D000A3FFBDF80A0040F2D972C0F30B018BB2F2
:1054E000934221DD103293421EDC9DF8050000F04E
:1054F0003F013B2918DC9DF8043003F03F023B2AB2
:1055000012DC9DF8060000F01F0117290CDCBDF825
:105510000C30C3F30B02B2F5B77F05DA9DF8090032
:1055200000F00F010C292FDD9DF8083001229DF8B5
:10553000090062F30403BDF80A1062F303008DF85A
:10554000083040F2DA7363F30B018DF809009DF81F
:1055500006009DF80720ADF80A109DF804309DF86C
:1055600005106FF304008DF806006FF302026FF36D
:1055700005016FF3050304A88DF807208DF80510C9
:1055800000F80C3DFFF76AFF05B000BD0040024087
:1055900008B51D20012101F03BFE034B01221A63D7
:1055A000186BC207FCD508BD0040005013B54FF082
:1055B000FF33B1F5805F01934CD2284B1B69DB07A9
:1055C0004AD4274B1B69DB0746D4264BDC686407AB
:1055D00001D59B68F9E7244B03249C601C61234C94
:1055E00003F590731C6022B101AC5C6041F0004493
:1055F00002E0586041F00844DC6000249C6041F205
:1056000006041C61164B1AB1186041F0806101E07C
:1056100001AA1A601548D9604FF408620021586049
:1056200099601A610D4A106940F001011161186911
:1056300040F0010119610B4B586A40F003015962B7
:10564000D0680105080D0029FAD15A6A22F0030139
:10565000596202E0012000E002201CBD2041005000
:10566000004100500000034000400050080003408B
:1056700010B5084C23681BB9012000F0BCFD206068
:10568000002120684FF0FF320B46BDE8104000F0CB
:1056900012BE00BFD0C30720034B002118680A4682
:1056A0000B4600F037BD00BFD0C3072038B50A2035
:1056B000012101F0ADFD0E4C01210A2001F0C0FDD9
:1056C000022507232360656001F02AFF09492B4664
:1056D000B0FBF1F0B0FBF3F2012A04D82361BDE87E
:1056E0003840FFF755BFB3F5807FF7D00233F1E7BD
:1056F0000000034040420F00034B10B50446036016
:1057000000F098F8204610BD40F9010010B504469D
:10571000FFF7F2FF2046FAF7A1FD204610BD00007A
:1057200010B50449044600F0A5FB034B2046236056
:1057300010BD00BF00C00040A8F7010038B5074CFD
:10574000236833B92020FAF787FD0546FFF7E8FF05
:1057500025602068BDE8384000F032BB34C1072026
:10576000034B10B50446036000F064F8204610BDFA
:1057700040F9010010B50446FFF7F2FF2046FAF7A2
:105780006DFD204610BD000010B50449044600F030
:1057900071FB034B2046236010BD00BF0080094011
:1057A00018F8010038B5074C236833B92020FAF700
:1057B00053FD0546FFF7E8FF25602068BDE8384047
:1057C00000F0FEBAD4C30720034B10B504460360B3
:1057D00000F030F8204610BD40F9010010B5044635
:1057E000FFF7F2FF2046FAF739FD204610BD000012
:1057F00010B50449044600F03DFB034B20462360EE
:1058000010BD00BF00C0094088F8010038B5074C42
:10581000236833B92020FAF71FFD0546FFF7E8FF9C
:1058200025602068BDE8384000F0CABAD8C3072018
:1058300001207047014B0360704700BFF8F801007A
:10584000034B10B504460360FAF708FD204610BD6F
:10585000F8F8010038B5074D074B29680446036086
:105860000020207119B9012000F0C5FC28602046F5
:1058700038BD00BFDCC30720F8F801002DE9F8436C
:1058800044790646894690461D46089F002C59D10A
:10589000002B59D001F0DAF9012823D03168B56125
:1058A0002025B47586F8149086F8158037610D6050
:1058B000FAF7CAFE4FF47A740023241843EB01056B
:1058C0000021F0680A4600F077FD28B9FAF7BCFE1F
:1058D0008D4208BF8442F3D2B27DD2F1010438BFB9
:1058E000002432E0B06821464FF47A72234600F07B
:1058F000E2FC28B3214622462346F06800F0DBFC98
:1059000033682022B47586F8149086F815803761C4
:10591000B561F0681A6021464FF47A72234600F0B0
:10592000CAFC28B1B07DD0F1010438BF002400E0EA
:1059300004460021B0680A460B4600F0EBFB04E089
:10594000044602E0002400E01C462046BDE8F8833F
:1059500021F00101FFF792BF1FB504AC04F8013D2F
:10596000012300932346FFF7F3FF04B010BD41F07D
:105970000101FFF783BF1FB5002404AB03F8014DFD
:1059800001240094FFF7F3FF9DF90F0004B010BD50
:105990001FB5002204AB03F8012D0092FFF7E7FFCB
:1059A00005B000BD38B500250446016045710120F1
:1059B00000F021FC2946A0600322012000F079FBC1
:1059C000E06020B129462A462B4600F0A3FB0021C7
:1059D0000A46E0680B4600F06EFC2068094A9042D7
:1059E00001D10A200AE00849884201D10B2005E0D4
:1059F000064B984201D10C2000E063202071204624
:105A000038BD00BF00C0014000C0054000000A4092
:105A100090F9043070B50A2B04460E46154606D0A0
:105A200037DB0B2B05D00C2B33D11A2002E00720DB
:105A300000E01320012101F0EBFB20686C22B5F59A
:105A40007A7F826103D84FF47A714D4300E0124DA2
:105A5000B6FBF5F56D0828236B436422B3FBF2F126
:105A60003C235D430161B5FBF2F20021402342611A
:105A7000C1600162416281620360207942B200F03C
:105A80001F03012000FA03F35109044A42F82130B0
:105A900070BD002070BD00BFA086010000E100E0E5
:105AA00038B5036802465C68382C00F0C3801CD807
:105AB000182C49D00AD8082C3AD0102C3FD0002CF2
:105AC00040F0D3806F48FAF7CBFC36E0282C56D054
:105AD000302C6ED0202C40F0C88059688175102081
