:020000021000EC
:10000000004008207F0101004D010100E1000100D6
:100010003D0101002D0101001D0101000000000053
:100020000000000000000000000000005DA40100CE
:100030000D01010000000000E1A401001DA5010068
:10004000FD000100FD000100A93E0100FD000100CE
:10005000FD000100798A0100FD000100E18A010034
:10006000498B0100FD000100FD000100FD000100C1
:10007000B9850100FD000100FD000100FD00010047
:10008000FD00010001790100FD000100FD000100FB
:10009000FD000100BD840100FD000100FD00010024
:1000A000FD00010011840100FD000100FD000100C0
:1000B000FD00010001A90100FD000100FD0001009B
:1000C000FD000100FD000100FD000100C855020017
:1000D00000C007202001000020C10720C804000044
:1000E00004207146084200F00480EFF309800AF012
:1000F0006DBCEFF308800AF069BC704708B5024890
:1001000000F0A2F9FEE700BFA14E020008B50248C8
:1001100000F09AF9FEE700BFB74E020008B50248AA
:1001200000F092F9FEE700BFC74E020008B5024892
:1001300000F08AF9FEE700BFD44E020008B502487D
:1001400000F082F9FEE700BFDF4E020008B502486A
:1001500000F07AF9FEE700BFEA4E020010B5002376
:10016000934203D21C585C500433F9E710BD0023BE
:100170008B4203D200221A500433F9E7704710B5BE
:10018000114C124B9C4205D294E807000C34FFF747
:10019000E5FFF6E70E48844205D294E803000834F0
:1001A000FFF7E5FFF6E70CF0C1F90AF06BFA01F092
:1001B0004BFD02F0CFFC4FF416400AF03BFD054822
:1001C00000F042F9FEE700BFCC000100D8000100BA
:1001D000E00001005C4F020008B5024800F034F96D
:1001E000FEE700BF854F020008B5024800F02CF979
:1001F000FEE700BF904F020008B5024800F024F966
:10020000FEE700BF9F4F02000E4B30B51A68014653
:1002100012B94FF08050186018680B4D44186319DC
:100220000A4D084AAB4201D9146002E00848091897
:100230001160044B074A1968914284BF1A6000207C
:1002400030BD00BF20C10720FF7FFFEFFE3F07103A
:10025000E8C50720004008200CF0A6B90CF0A4B9AE
:100260000CF0AAB90CF0A8B930B58BB004466846BA
:100270000CF0E6FD1C4D089B07982560A3606060AC
:1002800058B91A491A4A0B6893428ABF03F160436E
:1002900003F17043A3F5E82363606068B0F5803F25
:1002A00004D900F17041A1F5E82363600F48104BB9
:1002B000016800229942E26006D86D18C5F18053AA
:1002C00003F58035E5600BE00A4A914208D80A48F8
:1002D000C0F1804303F58012501A0028C8BFE060C7
:1002E000216120460BB030BDE805000020C1072089
:1002F00000800010FF3F0820E8C50720FEE700004F
:10030000014B1860704700BF24C10720014B1860E3
:10031000704700BF28C1072008B502480CF0B2FDA5
:10032000FEE700BF8828020008B502480CF0AAFDCD
:10033000FEE700BFA228020000207047012070479E
:10034000084B70B518680E46154640B10024AC4203
:1003500005DA044930570A6890470134F7E7284620
:1003600070BD00BF24C10720094B70B518680E4648
:10037000154600B970BD0024AC4206DA0448016895
:100380000020884730550134F6E725EAE57070BD56
:1003900028C107207047002070470000074B1968EC
:1003A0008A68824207D04B68834204D0C9680A1A1F
:1003B0005042504170470120704700BF7CC0072069
:1003C000002070470020704730B504468DB00028EB
:1003D00037D0684608F094F99DF800309DF8011078
:1003E00003F03F0003909DF8040001F03F029DF8E8
:1003F000025000F01F010492BDF806009DF8052090
:1004000005F01F03069102F00F05C0F30B018AB23D
:100410000593BDF808106B1E07939DF80330A2F2F8
:100420006C75C1F30B0203F00700089595B26B1EC3
:100430000990002503A80A930B950CF01FFA84E895
:10044000210000200DB030BD10B504460AF02CF894
:10045000013C14F8010F18B140B20AF027FCF8E78C
:10046000BDE810400AF032B80FB470B5A2B026ACA7
:1004700054F8046B802500212A4602A80CF02EF9BE
:1004800023462946324602A801940FF051FD044646
:1004900002A8FFF7D9FF204622B0BDE8704004B0A3
:1004A0007047000038B50F4C256815F0010516D1CE
:1004B00020460AF09DFC90B14FF40E70FFF7CCFE81
:1004C000094B30223A2180F8345280F8352280F8E6
:1004D000361280F83752186020460AF097FC02481E
:1004E000006838BD30C1072034C1072038B5104C32
:1004F000236813F0010517D120460AF079FC98B162
:100500004FF40E70FFF7A8FE012280F83422094A4A
:1005100031213A2380F8351280F8363280F837528C
:10052000106020460AF072FC0248006838BD00BF27
:1005300048C107204CC107202DE9F041ADF50A7DE7
:100540000E4607F00BFE041E04DD09F03BFF2046BB
:1005500009F0F2FC254D05AC0FCD0FC42B6810211E
:100560000DEB010200250AA82360049509F0A0FC08
:10057000074604986422B0FBF2F1049130461C490E
:100580001C4A0A2308F04EFBBD4221D00AAC049B52
:1005900004EB4514A2690BB1B2FBF3F3606994F864
:1005A0000C800090A18B02930A230191A2FB03010E
:1005B0004FF47A7200230BF0BBFB05AB03900E499E
:1005C0003046626853F8283008F02CFB0135DBE731
:1005D00009F080FB102804D930460849102208F0A1
:1005E00021FB01200DF50A7DBDE8F081BC28020049
:1005F000DB28020002290200072902002429020048
:1006000010B5C0B00C464FF48072002168460CF063
:1006100065F868460AF082F9204669464FF0FF32D5
:1006200008F0CAFA012040B010BD000030B50C46F9
:1006300091B02C49054607F099FC002847D008AB3B
:10064000009309A80AA90BAA0CAB0190029103928E
:1006500004932846244906AA07AB07F0EAFB0728BB
:1006600001D000203BE09DF8390006999DF8383014
:1006700061F303008DF839000899BDF83A00079A34
:1006800061F30B0062F304030A99ADF83A009DF898
:100690003500099A8DF838309DF8363061F3050041
:1006A00062F304038DF835000C999DF837008DF83E
:1006B00036300B9A9DF8343061F3020062F3050383
:1006C0008DF837000DA88DF8343008F03BF808F0AD
:1006D000D3F806490246204608F0A4FA012011B0DA
:1006E00030BD00BF4E2902005229020056470200C9
:1006F00030B589B004AB0024009302220D4603AB51
:1007000018490394049407F0A1FB022827D107A8F5
:10071000009005AA0398049906AB059406940794E3
:1007200003F02EFD024638B1049928460091039B40
:100730000D4908F077FA10E0059A069B079C002AFD
:1007400008BF0122002B08BF012328460749B4FB3C
:10075000F2F2B4FBF3F308F065FA012000E0204662
:1007600009B030BD713A02006B2902008A290200EB
:100770002DE9F0410C46ADF5866D3049054607F090
:1007800082FC2F490746284607F0A6FC2C4928463C
:1007900007F0C2FC284607F0DFFC0122014601A851
:1007A00005F084FD064640B1284607F0D5FC2549F2
:1007B0000246204608F036FA3AE00BAD314640F2E8
:1007C000014228460BF08AFF009601F0E5F98046C9
:1007D00001A829464FF480626B4605F033FE90B1C4
:1007E00001A805F0D9FF8FB101F0D6F9B0EB0800F0
:1007F00014BF03460123144920463246B6FBF3F3E7
:1008000008F010FA02E0009B3BB9E9E720460F49E7
:100810004FF0FF3208F0D0F90AE0F618E854002F44
:10082000D6D1204629464FF0FF3208F0B1F9CFE784
:1008300001200DF5866DBDE8F08100BFB8290200EA
:10084000713A0200C1290200D5290200B34002001A
:10085000F0B5C1B00DAB0025009302220C460CABE5
:100860005C490B950C950D9507F0F0FA022803D121
:100870000D980BF050FD05460C9808B956490C919F
:1008800016A80C9906F02BF8034678B12046534978
:100890000C9A08F0C7F99AE020AA802616A80EA99B
:1008A0001492159606F06DF8013D08B9002DF3DCA1
:1008B00020464B490C9A08F0B5F900252E468020B9
:1008C00020AB15900EA916A8149306F05AF800282C
:1008D00065D19DF94110002961D09DF8407007F065
:1008E0001002D3B213B10135442205E00B990E98E2
:1008F00001360A180B922D2207F0020C17F0010F97
:1009000007F0040E5FFA8CF007F020070CBF2D23D0
:1009100052235FFA8EF100280CBF4FF02D0C4FF0E0
:10092000480CF8B200290CBF4FF02D0E4FF0530EBB
:1009300000280CBF2D214121BDF83C00029141123D
:10094000BDF83E7001F2BC718DE800500391C0F318
:100950004311049100F01F00F912C7F345170691E7
:100960000590079740A951F8C80D093108900991E1
:1009700020461C4908F056F920461B494FF0FF322B
:1009800008F006F920A920464FF0FF3208F000F9E0
:10099000204616494FF0FF3208F00EF98FE7009518
:1009A00040AD55F8D43D12493246204608F03AF998
:1009B0000C9829460AAA06F013F840B90A9B0B992D
:1009C0009A7820464A430B49520808F02BF9012037
:1009D00041B0F0BD713A0200F0290200F329020093
:1009E000172A0200322A02005F2A0200B3400200E6
:1009F000632A02008D2A020070B50E46054607F0F4
:100A0000ABFB0446284607F0A7FB06F0B6F8064AFB
:100A1000064B0749002818BF13463046224608F007
:100A200001F9012070BD00BF4D2C0200432C0200D3
:100A3000A12A020070B50E46054607F08DFB04465C
:100A4000284607F089FB06F02FF8064A064B0749AF
:100A5000002818BF13463046224608F0E3F801206C
:100A600070BD00BF4D2C0200432C0200BD2A0200C5
:100A70007FB503AB0024009302220E4602AB0F4960
:100A80000294039407F0E2F9022814D1029D039C1A
:100A90002846214606F018F909490A4A2346002843
:100AA00014BF104608460090074930462A4608F011
:100AB000B9F8012000E0204604B070BD713A020090
:100AC000432C02004D2C0200CF2A020030B58DB01D
:100AD0000C46054607F040FB0A22014602A805F035
:100AE000E5FB40B1284607F037FB1F490246204688
:100AF00008F098F835E08DF8030001901B49204676
:100B00007E2242F2107308F08DF81949204608F051
:100B100089F8236820461B680DF1030142F2107228
:100B2000984718B19DF903007E2803D102A805F06B
:100B300033FE16E002A80DF10301012201AB05F01E
:100B400027FD28B10199012902D020460949DEE795
:100B50002268204653689DF903104FF0FF329847F2
:100B6000D7E701200DB030BDE72A02000E2B0200AE
:100B7000462B0200662B02002DE9F043ADF5417DC6
:100B8000002303AD2B60029302220C4600954049DE
:100B900002AB07F05BF9022806D020463D494FF032
:100BA000FF3208F009F86EE016A8296805F097FEF4
:100BB00018B1204638492A6807E016A8029905F0BE
:100BC0008EFE28B13549029A204608F02BF85AE0EB
:100BD00040A94FF4807204A807F0FCF809A880A986
:100BE0004FF4807207F0F6F820A880211490159138
:100BF00016A80EA905F0C5FE00283ED19DF941209A
:100C0000002A3AD09DF8405005F01003DDB2002DC7
:100C1000EAD10DF14106029A334604A8204907F0B3
:100C200012FB039A33461E4909A807F00CFB04A8DF
:100C300007F092FA804609A807F08EFA074604A842
:100C40000E9E07F089FA814609A807F085FA2A4620
:100C500001462B460095484603F092FA1149124A84
:100C60000096002814BF1046084601900F49204600
:100C700042463B4607F0D6FFB6E709A807F0BEF8A4
:100C800004A807F0BBF801200DF5417DBDE8F08315
:100C9000713A02008D2B0200D22B0200F72B0200CA
:100CA000172C0200432C02004D2C02001D2C0200C8
:100CB00070B50C462149054607F04CFA064628B1A6
:100CC000FFF714FC002100F2352009E028461C49FA
:100CD00007F040FA50B1FFF7E5FB314600F235204E
:100CE0000A4606F083F8174B17491CE028461749B7
:100CF00007F030FA48B1FFF7F9FB012200F2352185
:100D000005F084FA124B13490DE02846124907F00A
:100D100021FA88B1FFF7C6FB012200F2352105F068
:100D200075FA0E4B0E49002808BF19464FF0FF32E6
:100D3000204607F041FF012070BD00BFA42C020037
:100D4000AE2C02003C2C0200462C0200BB2C020000
:100D5000532C0200632C0200C42C02007A2C0200E7
:100D6000882C020010B501200C4607F027F838B196
:100D700000210A460B4608F075FC2046044901E0B4
:100D8000044920464FF0FF3207F016FF012010BD46
:100D9000D02C0200E62C020038B5064C236833B98B
:100DA0001C20FFF759FA054607F0FCFB2560206878
:100DB00038BD00BF3CC107202DE9F0430D4687B088
:100DC0003849064607F0EAF837498046304607F0CA
:100DD000E5F836498146304607F0E0F8002704463A
:100DE000039704970597B8F1000F1DD0304630499E
:100DF00003AA04AB07F01DF8022807D028462D49A6
:100E00004FF0FF3207F0D8FE3C4647E0FFF7C4FF43
:100E10009DF90C109DF9102007F0DFFF0499C2B274
:100E200000912846244923E0B9F1000F25D005ABF5
:100E300000933046214903AA04AB06F0FAFF0328C9
:100E400007D028461E494FF0FF3207F0B5FE444652
:100E500024E0FFF7A1FF9DF90C109DF910209DF9EA
:100E6000143007F0ABFF04981649059A0090284605
:100E7000039B07F0D7FE012410E078B10226FFF7AC
:100E80008BFF71B207F0B6FF20B128460E493246FB
:100E900007F0C8FE0236B6F5807FF0D1204607B0D5
:100EA000BDE8F083943B0200002D0200062D0200F5
:100EB0000F2D02001B2D02003C2D02005D2D0200B3
:100EC0006D2D0200942D0200B42D02002DE9F04F8B
:100ED0005E4C93B023680E4633B92020FFF7BCF96F
:100EE000054607F0BBFD2560D4F80080FFF7DAFA6D
:100EF000002512A941F8105D00F235200DAA05F079
:100F00006FFD48B90D9A0E9997699078BC1E4143C0
:100F100044434D08670800E02F46DFF83491D9F8C4
:100F2000003063B90C20FFF797F90446FFF734FF50
:100F30009022206000202271A060C9F8004044493E
:100F4000086803F00BF904460AF0CCFE83460AF069
:100F500025FD014620460AF06BFC3E490AF072FD71
:100F60000AF0C0FE0B900FA809F082FB04F026F8EF
:100F700038B307F0F9FC04F009F800240346A14651
:100F8000A2469C420AD020460A9304F05FF85045DE
:100F900084BFA14682460A9B0134F2E707F0F8FCC1
:100FA000642303FB0AF22C483B46B2FBF0F1C1F18B
:100FB00064028DE80406304628492A4607F032FECE
:100FC00005E0304626492A463B4607F02BFE254CD5
:100FD00023681BB90120FFF73FF92060206803F068
:100FE00081F8044607F048FC9DF841209DF8401028
:100FF000019001F01F0302F00F00BDF8422003939F
:101000009DF83E300290C2F30B0081B203F01F0244
:101010009DF83D009DF83C300491059200F03F01A1
:1010200003F03F02079200940691B8F818005A4660
:101030000890B8F81A10304609910B9B0A4907F03E
:10104000F1FD012013B0BDE8F08F00BF2CC10720D7
:1010500038C1072000002041A0860100D42D0200E5
:10106000082E020040C10720162E020038B5064C9B
:10107000236833B91420FFF7EFF8054606F016FB96
:101080002560206838BD00BF44C1072008B54FF077
:10109000FF320846094907F08FFDFFF7E7FF06F02A
:1010A000F7FA4FF4FA6008F047FF4FF08043002052
:1010B000AA221A721870012008BD00BF7E2E0200FD
:1010C00073B50C461349054607F044F850B1FFF7D5
:1010D000CDFF06F0DDFA20460F494FF0FF3207F052
:1010E0006BFD15E0FFF7C2FF0646284607F034F80F
:1010F000B9230146094A00933046094B06F0B0FB7C
:10110000284607F029F807490246204607F08AFDDD
:1011100001207CBD8F2E0200952E0200AE2E020013
:10112000D0280200E12E020070B58AB005460C46B8
:1011300006F076FE0B2804DD20461C490C2207F041
:1011400071FD284607F008F801220146684605F0BF
:10115000ADF80646F0B9164A164B28465A6406F012
:10116000FBFF154B01681960426814495A6080689A
:101170009860039A204607F055FD684605F00CFB81
:101180004FF47A7008F0D8FE4FF08043AA2119720C
:101190001E7007E0284606F0DFFF09490246204698
:1011A00007F040FD01200AB070BD00BF032F020010
:1011B0000DD0ADDE00400240484002402A2F020020
:1011C000722F020070B5414EA6B033680546DB07AA
:1011D0000C460CD4304609F00BFE40B14FF4806051
:1011E0000BF0E2F93A490860304609F00FFE284654
:1011F000384906F0D3FE064620B30021802206A817
:101200000BF06CFA002105A8049105910090324979
:1012100006AA04AB284606F00CFE2D4A049B116872
:1012200006A8059A13B903F035F801E003F053F866
:101230002A4A2B490346002B08BF1146204607F0D7
:10124000F1FC32E02846274906F0A8FE00283BD0F2
:10125000284604AA244905AB049605968DF80F602C
:1012600006F0E7FD049D05982A18B2F5806F0DDDA4
:1012700020461E494FF4806210E015489DF80F107B
:10128000026851559DF90F300135F618049B0598F9
:10129000E91A814205DB16492046324607F0C2FCB6
:1012A00003E0B5F5806F02DBF5E701200CE0226872
:1012B000204613680DF10F014FF4FA629847002899
:1012C000DBD120460B49BAE726B070BD54C10720D8
:1012D00050C107209D2F0200A42F0200872F02007B
:1012E0008B2F0200B42F0200BB2F0200C52F02007B
:1012F000F92F0200E92F020030B50C4687B00B49E8
:10130000054607F08FFCA17AE07A0091E188019010
:1013100002912089A188039004916288238828463D
:10132000034907F07FFC07B030BD00BF0A30020060
:10133000403002001FB501A80C4602F08FF901F001
:101340007DFE01A902462046FFF7D6FF012004B02A
:1013500010BD0000F0B58DB003AB002500930C4626
:1013600017463849022202AB0295039506F06EFD3E
:10137000A84239DD02980AF0CEFFC6B2039818B130
:101380000CF077F8C5B200E0054604A8002102F091
:10139000FDFC30B120462C494FF0FF3207F00CFC29
:1013A000F3E7003718BF0127022000903946304686
:1013B000039A2B4601F074FF10B9204623490EE032
:1013C000002F3CD004A84FF47A7102F0E9FC002809
:1013D00030D09DF81010B1422CD107E01C494FF0DD
:1013E000FF3207F0E9FB2AE0284629E09DF81720A4
:1013F0000C2A04D1204606A93246FFF77DFF20467D
:10140000002DEBD1134907F00DFC9DF817309D42DC
:101410000BDA20680CA94A19436812F9181C2046F7
:101420004FF0FF3298470135EFE720460A4907F0B1
:10143000F9FB04E020460949029A07F0F3FB01207A
:101440000DB0F0BD713A02005E3002008030020043
:10145000BC300200A830020023380200D93002005C
:1014600038B50D4606F07AFE0446C0B201F0DAFD4A
:10147000054A064B0649002808BF1346284622465F
:1014800007F0D0FB012038BDFF300200432C0200E2
:101490000631020030B58BB00AAA4FF47A730C46BD
:1014A00042F8243D174906F0C4FC002502A8019922
:1014B00002F06CFCE0B1204613499DF8082007F0CB
:1014C000B1FB00259DF80F0085420BDA23680AA9BD
:1014D0004A1912F9181C5B6820464FF0FF329847F2
:1014E0000135EFE72046094907F09CFB0125DDE7C0
:1014F0002DB9204606494FF0FF3207F05DFB012071
:101500000BB030BDC22F02001D310200B2400200FC
:101510003431020037B50C4601F006FF1649054686
:10152000204607F07FFB154920462A4607F07AFB44
:101530002046114907F076FBDDB11149204607F03E
:1015400071FB20460C4907F06DFB0020451CEDB2F5
:1015500001F0D4FE48B181780278437800912046AA
:10156000084907F05FFB2846F0E72046024907F0EC
:1015700059FB01203EBD00BF453102006031020031
:101580007A3102009531020038B5064C236833B930
:101590004C20FEF761FE054607F092F825602068B2
:1015A00038BD00BF58C107202DE9F04FADF5757D5E
:1015B0008022044634AF894614A800210BF08EF82F
:1015C0000021802238460BF089F803AE00233360F7
:1015D00020460096714914AA3B4606F02AFC0328CF
:1015E00001D00020D5E00AA814A9012204F05EFE73
:1015F00005460028F5D1FFF7C7FF0446306854A917
:1016000084F84700802205A88DF80B50049506F059
:10161000E1FB00974846624914AA336807F002FBD1
:10162000A8460AA874A94FF4007204AB04F00AFF9C
:1016300038B10AA805F0B0F805A806F0DFFB0120D4
:10164000A7E004990029F4D06F1C5649049A20465B
:1016500007F0E8FA226820469668B04700267D1E0B
:10166000B246049B20689E420DD20DF5E87B1BF923
:10167000061043684FF0FF322046984716F90B10CA
:1016800001368A44EDE781682046884705A806F0C0
:1016900063FD064605A806F0C6FB4FF47A730246C2
:1016A0003146204607F096FA0121202205A806F0CF
:1016B000FEFC05A806F052FD50451FD005A806F017
:1016C0004DFD394903465246484607F0ABFA3749C3
:1016D000204607F0A7FA20688168204688472268DC
:1016E000204613680DF10B014FF47A7298470028D9
:1016F000F5D1781C022F9CD80746A6E7049A2C49FE
:101700000092434634AA204607F08CFA2668204609
:10171000B368984705A806F01FFD064605A806F021
:1017200082FB314602464FF47A73204607F052FAA4
:1017300005A8204906F008FCD0B905A806F00CFD64
:101740001D490246484607F06DFA1849204607F041
:1017500069FA216820468A689047236820461B68FA
:101760000DF10B014FF47A7298470028F5D1C0E7CC
:1017700005A8124906F0A5FD049811498044424687
:1017800048460D9B07F04EFA002D3FF44AAF013D4D
:1017900047E70DF5757DBDE8F08F00BFB031020061
:1017A000BF310200D6310200E8310200B24002002F
:1017B0000F3202002532020028320200B34002003C
:1017C000603202002DE9F04186B006AA00260746E5
:1017D00042F80C6D0D463C4906F02BFB38460121C2
:1017E000202206F064FC039B002B63D0384606F0F1
:1017F00017FB00285ED0FFF7C7FE8DF80B6004468C
:1018000020680DF10B01066805222046B047064608
:101810000028F5D10399384684F8471006F09CFC5F
:101820004FF0FF320146204607F0C6F922682046F5
:101830009768B847254B0596186837460490216885
:1018400020460B684FF47A720DF10B01984770B186
:1018500005A8411C03220AF027FF9DF80B8005A86C
:1018600004A904228DF817800AF006FF38B9182160
:10187000B7FBF1F301FB13726AB101330BE0286887
:101880004FFA88F14368012228460137984700281B
:10189000D5D10136D3E728460D493A4607F0C2F9BB
:1018A00076B1612000900B49284632460A4B07F07A
:1018B000B9F905E0284609494FF0FF3207F07CF9F5
:1018C000012006B0BDE8F081C22F02000630020000
:1018D0006C320200933202004C3302008833020063
:1018E00043682DE9F041994204460D4617D3C0687C
:1018F00089000BF051FBA668E060B700AE420DD244
:101900001020FEF7A9FC0021102280460AF0E6FE16
:10191000E068013640F807800437EFE76560BDE80E
:10192000F08100002DE9F743304D07462C688946C9
:10193000002C49D12420FEF78FFC0423064680E8C2
:1019400018008460C46008214FF00108FFF7C8FF49
:1019500086F8208030462649264A274B00942E6080
:1019600005F0A4FC28682549254A264B009405F07B
:101970009DFC28682449254A254B009405F096FCD7
:1019800028682449244A254B009405F08FFC2868D8
:101990002349244A244B009405F088FC28682349F5
:1019A000234A244BCDF8008005F080FC28681F49AD
:1019B000214A224B009405F079FC009428682049C4
:1019C000204A214B05F072FC3846204906F0C2FB44
:1019D00018B138461E4906F074FC044B39461868A5
:1019E0004A4603B0BDE8F04305F030BD5CC10720B6
:1019F000C5170100B4330200BB330200A915010072
:101A0000F5330200FE330200951401005234020047
:101A100055340200611401006B3702007834020073
:101A200015150100BE340200A23402005513010056
:101A300007350200C5340200063502000B350200EE
:101A4000351301004B35020030350200B34002006F
:101A50005135020038B50D46044609F09DF8074B94
:101A60000221B0FBF3F0B0FBF1F2954201D321610A
:101A700038BDB1F5807FFAD00231F4E740420F0063
:101A800001480BF0FFB900BF563502007FB500F2E8
:101A900035260D460122314604F0B8FBC4B24CBBDA
:101AA00004A941F8044D304602AA04F099FFF8B9A0
:101AB000029A039994699378A21E5A435943540891
:101AC00040F2E73348089C420F49104B8CBF4FF45B
:101AD0008062012288BF0B46B0FBF2F18DE80A005C
:101AE0000B482946B4FBF2F20BF0B4F9012008E0F0
:101AF000084B00E0084B0948294662B20BF0AAF9EE
:101B0000002004B070BD00BF903502008D3502008A
:101B10009A3502009335020097350200C83502005D
:101B200038B5AA224FF0804355201A72187208F077
:101B3000BFFB174C01284FF000014FF00100D4E922
:101B4000002317D1121843EB0103C4E9002308F066
:101B500035FFD8B108F024FFD4E900010A220023A0
:101B60000AF0E6F80A25A0FB052305FB0133C4E9CA
:101B7000002338BD121843EB0103C4E9002302F02F
:101B800019F90020BDE8384008F068BD38BD00BF35
:101B900078C10720FFF7C4BF024BD3E900231046EA
:101BA0001946704778C1072038B5084D2B684BB9E6
:101BB0000820FEF751FB0446FFF7EEF820604020B6
:101BC00020712C600149086838BD00BF70C1072032
:101BD00038B5054C256825B90120FEF73DFB057099
:101BE0002060206838BD00BF6CC1072038B5094DA2
:101BF0002B685BB90C20FEF72FFB0446FFF7CCF8EF
:101C00000021206090202071A1602C60014A1068A2
:101C100038BD00BF38C1072010B5044C23681BB97C
:101C20000120FEF719FB2060206810BD40C107208D
:101C300010B5044C23681BB90120FEF70DFB206092
:101C4000206810BD68C10720634A644970B540230D
:101C5000634D4FF000704FF480348B6190618C6164
:101C60002E68ADF5027D26F0F0032B60286840F069
:101C700050042C602E6826F440532B60086840F016
:101C800040040C602E6826F47C232B60286840F406
:101C900028242C602E6826F470032B60286840F4FA
:101CA00020042C602E6826F040432B60286840F00A
:101CB00000442C606E6826F03C036B60686840F05E
:101CC00028046C606E6826F003036B60086840F4BB
:101CD00080340C606E6826F440536B60086820F412
:101CE00080040C60E96821F44036EE60136843F02C
:101CF000807010606C6824F4402169606E68394C13
:101D000046F480236B60A8680440AC60116841F41D
:101D1000897646F001031360A86820F47014AC6063
:101D2000A96821F07046AE60136823F44640106045
:101D3000EC6824F03001E960EE6846F03003EB60B7
:101D4000E86820F47014EC60156845F000711160CB
:101D5000166826F08063136008F014FC4FF4FA60F4
:101D600006F0CDFAFFF78CFE08F016FF09F012FE20
:101D70001D4909F01BFF09F093FC02460B461B4866
:101D80000BF068F808F06EFC04280AD1FFF778FE23
:101D90001748C16C026D436D16480BF05BF8FFF7F6
:101DA0006FFE0C20012108F06FFD134C0C20032165
:101DB00008F082FD4FF40012226008F0EDFE0223CD
:101DC000C5080E4EB5FBF3F1B14219D8206840EAC0
:101DD0000322226018E000BF20C0092000C00920B3
:101DE00000C00240F0FCFCFF0024744906360200EB
:101DF000004002401E360200004003403F5DC60026
:101E00000233B3F5807FDCD106F0CCFD1520012133
:101E100008F03AFD1520012108F04EFDA9480724DD
:101E20000225046001214560FFF714FEFEF7B4FFB0
:101E3000642106F081FB10B9A3480BF023F801F0F0
:101E40007FFF10B9A1480BF01DF80121A04808F050
:101E50007BFDFEF727FB9F49FFF718FE0646B8B942
:101E60009D480AF0F7FFFEF71DFB3246314600F2AF
:101E7000352004F0BBFF9949994B002814BF184640
:101E800008460AF0FFFFFEF70DFB9249FFF7FEFD43
:101E9000944C206810F0010517D1204608F0A8FFE7
:101EA00098B14FF40E70FEF7D7F98F4B012231260F
:101EB0003A2180F8342280F8356280F8361280F8B2
:101EC00037521860204608F0A1FF874C87492068E8
:101ED000FFF7DCFD86481821FFF7BCFDFFF7D0FDBA
:101EE00000250226FEF758FF71B206F083FF50B1BD
:101EF000382E08D0402E06D0902E04D07D48314692
:101F00000AF0A8FF01250236B6F5807FEAD10DB1AF
:101F1000FFF7B6FD784D286848B90820FEF79CF910
:101F20000446FEF739FF3822206022712C60724986
:101F3000086801F0A7FF044618B970480AF0A2FF2C
:101F400000E00124FFF752FE02F0DCF8064618B963
:101F50006B480AF097FF3446FFF726FE02F078F848
:101F6000054618B967480AF08DFF2C46664E33685F
:101F70001BB90120FEF770F93060306801F0E4FF12
:101F8000FFF74AFE02F0ACF8FFF722FE02F07DF800
:101F9000FFF74EFE02F0A8F8FFF71AFE002102F04C
:101FA00077F894B9FFF76CFDFFF7FEFD2D2102F0E5
:101FB0000DF8FFF7F9FD2D2102F014F8FFF708FEE8
:101FC0004FF0FF3102F064F80CE0FFF7EDFD05463D
:101FD000FFF70CFE02F0C2F809F084FE41B2284679
:101FE00002F00CF80023494802A907220293039348
:101FF00002F02FF9A8B902A80AF08DF9C4B2601E48
:10200000C2B2FD2A05D902A9404A41480AF022FF7E
:1020100007E0404821463D4A0AF01CFF204601F0F7
:1020200001F8FFF7F9FD02F05DF8064600200CF01C
:102030002FFC30180AF044FF4FF40072002102A870
:102040000AF04CFB02A808F069FC02A932480AF029
:1020500001FFFFF715FD0021802202A80AF03EFBD8
:1020600002A802F081FF9DF908506B1C05D002A95F
:10207000EAB22A480AF0EEFE64E0FFF7D9FD02F06A
:1020800035F8092858D126480AF0FCFE02A925484F
:102090000BF04AF802A924480AF0DCFE23480AF0B3
:1020A000F1FE00210191224801A90BF03DF89DF9B4
:1020B0000430592B03D102A802F038FF42E01D483A
:1020C0003EE000BF0080084072360200A3360200E6
:1020D000211B0100C8360200D0360200FB35020089
:1020E0000036020048C107204CC10720722C0200B4
:1020F00000000340F936020060C107201C370200CF
:10210000373702005137020064C107206A370200E6
:10211000703702009B37020056470200C8370200A2
:10212000E4370200063802000B38020026380200AD
:10213000693802006D38020014480AF0A3FE144802
:102140000AF0A0FE4FF20804206862684FF4704362
:102150004FF20401850A960AA4681A6809680D48B6
:102160000AF078FE2A4631460B480AF073FE2146F3
:102170000A480AF06FFEFFF783FC09480AF082FE66
:10218000FFF77EFC0DF5027D70BD00BF85380200B3
:10219000B3380200E5380200113902003E3902006E
:1021A0005B390200014B0360704700BF78390200C1
:1021B00001207047012070470120704701207047BF
:1021C00001207047014B0360704700BF783902005F
:1021D000034B10B504460360FEF742F8204610BDDD
:1021E00078390200034B10B504460360FEF738F857
:1021F000204610BD78390200642310B50021044642
:10220000C3610322012007F0FCF9206620B1002100
:102210000A460B4607F026FA206E58B100210A46FE
:102220000B4607F0F0FA28B1216E0120BDE81040FE
:1022300005F09CBD002010BD37B500250B4600956C
:102240000B494FF4C062044605F076FD094B0022AD
:1022500023600023C4E91A23C4E91C23E56525662D
:1022600004F13400294628220AF038FA20463EBDFF
:10227000F9390200303A020010B5002300EB830464
:10228000646B8C4202D11360012010BD01330A2B14
:10229000F4D1002010BD000010B5044C23681BB918
:1022A0000120FDF7D9FF2060206810BD64C1072020
:1022B00070B596B00024064606A9402201A80094F5
:1022C00005F088FD306E21462246234607F09BFA32
:1022D000002837D059480AF0D5FDFFF765FC2D21BD
:1022E00001F074FEFFF760FC2D2101F07BFEFFF78B
:1022F000D3FF01F05BFE18B9642007F01DFEF6E77E
:10230000FFF7CAFF01F05AFE054622464C492B460C
:1023100001A805F098FF01A805F01EFF0AF0B2FD24
:1023200006EB84035D63FFF73FFC61B2013401F00B
:1023300065FE0A2CDBD143480AF0A4FD4FF4FA6095
:1023400007F0FAFDD6E91C2352EA03012AD0FFF771
:10235000A3FF01F02BFE002852D0FFF79DFF01F0F4
:102360002DFE6A4601463046FFF786FF002847D01B
:10237000009BF16DC818F065FFF716FC009A30322B
:1023800051B201F02FFE4FF4FA6007F0D5FDFFF7D0
:1023900083FF01F013FE00220023C6E91A23C6E9D9
:1023A0001C2344E0FFF778FF01F000FE00283ED038
:1023B000FFF772FF01F002FE6A4601463046FFF762
:1023C0005BFF002833D0FFF7EFFB00990025303189
:1023D00049B201F0FBFDFFF7E7FB2D2101F002FE02
:1023E000009C0A204443F46542F21074C6E91C457F
:1023F000FFF7D2FB001941EB0501C6E91A0116E00F
:10240000D6E91C2352EA030111D0FFF7C5FBD6E938
:102410001A23994208BF904209D300220023C6E93B
:102420001A23C6E91C23FFF7BFFB01F006FE01A833
:1024300005F0E4FC012016B070BD00BFC5390200F4
:10244000003A0200123A020001207047F8B591E804
:1024500060000F7A14468FB1082A0FD1304605F07C
:10246000DFFC00281BDD28460E494FF0FF3206F046
:102470008FFB3046012105F0DAFD08E00A2C05D07B
:102480000D2C03D03046214605F0BDFE4FB12B6820
:1024900028465B6821464FF0FF329847F8BD072475
:1024A000F5E7F8BD703A02002DE9FF41CE6B044616
:1024B0000D4601AF5EB94FF47A7007F03DFD31462D
:1024C0000C2238460AF00AF997E807005EE00B6C28
:1024D00001F13406186807C887E8070000278DF85F
:1024E0000370EA6B97422DD2F368511E53F8270010
:1024F0008F420CBF0522002200684FEA870801794D
:10250000002949D003680DF103011B689847002892
:1025100042D0B268974241D2F16851F8080001AB4D
:1025200007C883E8070019469DF903202846FFF7EE
:102530008DFFFFF731FBD5E92223121843EB01038E
:10254000C5E92023029805F06BFC0746029805F0C8
:102550006AFC421E974216DAD5E92201014320D0D7
:10256000FFF71AFBD5E92023994208BF904218D300
:10257000FFF712FBD5E92223121843EB0103C5E94B
:1025800020230023019304A810E9070084E8070032
:10259000204604B0BDE8F0810137A2E706F1100043
:1025A000BDE79DF903100A29EDD0002799E7000047
:1025B000F0B5054685B020480AF04CFC01A8294634
:1025C000FFF772FF019C1CB91C480AF05BFC30E06D
:1025D000029E304605F024FC00282ADDFFF7DCFAD5
:1025E0000746F8B1B5F874303146581CA5F87400A8
:1025F000224605F1500004F029FF114900250A6820
:10260000009223681DF905105B6820464FF0FF32E9
:1026100001359847042DF4D1FFF7BEFAC11B0948D4
:102620000AF018FC304605F000FC2068816820465E
:102630008847012005B0F0BD733A0200B3400200A4
:10264000483A0200793A020038B5064C236833B99B
:102650002020FDF701FE054606F000FA25602068FF
:1026600038BD00BF2CC1072010B50446FFF7ECFFB2
:10267000036821465B684FF0FF32984740B210BDB7
:1026800013B5002302AC04F8013DFFF7DDFF01683C
:102690004FF0FF320B68214698479DF907001CBD9B
:1026A00038B5054600246B68E8689C4205D250F8AE
:1026B0002400FDF7D5FD0134F5E708B1FDF7D2FDA3
:1026C000284638BD0D4B70B5044640F8503BFFF727
:1026D000E7FF04F1340600257068854206D2F268EF
:1026E00052F82500FDF7BCFD0135F5E7206C08B177
:1026F000FDF7B8FD02492046216070BD583A02003E
:102700007839020010B50446FFF7DCFF2046FDF7DC
:10271000A7FD204610BDF8B54368044699420D4612
:1027200015D3C06889000AF037FCA668E060B700DE
:10273000AE420BD20C20FDF78FFDE2680021016054
:10274000416001720136D0510437F1E76560F8BD90
:102750002DE9F0410446142016468846FDF77CFD1D
:102760008021074605F062FDA36BE26B9A4205D318
:10277000616B04F134005918FFF7CDFFE56B206C55
:1027800050F825300135C3F800805F601E72E563A4
:10279000BDE8F0812DE9F04100F150048AB0002538
:1027A0000646009520465B495B4A5C4B04F07EFD83
:1027B000009520465A495B4A5B4B04F077FD009533
:1027C00020465A495A4A5B4B04F070FD009520465A
:1027D00059495A4A5A4B04F069FD00952046594917
:1027E000594A5A4B04F062FD009520465849594A0F
:1027F000594B04F05BFD009520465849584A594B07
:1028000004F054FD009520465749584A584B04F0AF
:102810004DFD009520465749574A584B04F046FD58
:10282000009520465649574A574B04F03FFD009506
:1028300020465649564A574B04F038FD009520462D
:102840005549564A564B04F031FD009520465549EE
:10285000554A564B04F02AFD009520465449554AE6
:10286000554B04F023FD009520465449544A554BDE
:1028700004F01CFD009520465349544A544B04F083
:1028800015FD009520465349534A544B04F00EFD64
:10289000009520465249534A534B04F007FD0095DA
:1028A00020465249524A534B04F000FD0095204601
:1028B0005149524A524B04F0F9FCFFF7C5FE4FF460
:1028C000806320224FF41641054606F0A5F8012743
:1028D00080462F714B48FDF719FD4B48FDF710FD61
:1028E000304629463A46FFF733FF082203A905A8D8
:1028F00005F070FA05A8454905F0E3FC05A92A464C
:10290000204604F0A3FD05A805F078FA40460AB079
:10291000BDE8F08139050100D93A02008F3A020082
:1029200001060100C63A0200CE3A0200CD0E0100B7
:10293000EC3A0200DE3A02002D060100343B0200B0
:10294000F33A020071070100393B02003D3B0200EF
:10295000F1060100DC3B0200993B0200790B01000B
:10296000DB3B0200DF3B0200510801002A3C020071
:102970002D3C0200F90901005B3C0200613C0200B1
:10298000710A0100863C0200893C0200CD0A010068
:10299000C6530200B63C0200350A0100DB3C0200CF
:1029A000DE3C0200B90D0100013D0200053D0200C0
:1029B000B10C0100AC3D0200B43D02008D100100DD
:1029C000F73D0200FE3D0200C1100100113E020071
:1029D000153E0200650D01004B3E0200513E020013
:1029E00025190100BF360200793E0200C511010021
:1029F000973F0200A33E020029110100B52C0200FE
:102A0000603F020081260100692601005135020065
:102A100073B500244FF480520B46009418490646C3
:102A200005F08AF9174B042533607563B463F463CA
:102A3000346406F134000221FFF76DFE35657465DC
:102A4000B465F46506F150001821FEF749FFA6F8B9
:102A50007440A6F87640B4670B4C00220023002592
:102A6000012086F87000C6E92023C6E92245FFF759
:102A700093F8001941EB0501C6E9200130467CBD01
:102A80009C3F0200583A0200C0D40100014B036091
:102A9000704700BF78390200034B10B5044603604D
:102AA000FDF7DEFB204610BD7839020008B501F0C5
:102AB00081F9012008BD0000244BD3F8C42042F462
:102AC0008060C3F8C400D3F8A81121F44012C3F801
:102AD000A821D3F8A80140F48011C3F8A811A3F5E8
:102AE00050231A6822F440401860196841F40042EB
:102AF0001A601868164A20F440511960106840F0B6
:102B000040011160186820F470211960186840F4C1
:102B10002021196003F58043186820F00F01196027
:102B2000186840F007011960586820F002015960E8
:102B3000586820F004015960586840F002010820EC
:102B4000596018614023D361704700BF00C00F4037
:102B500000C0092070B52A48ADF5027D0AF092F94F
:102B6000FFF7AAFF02F03AF926480AF073F90021AC
:102B7000022202A802F076F923489DF808100AF014
:102B800069F9002402AB195D204801340AF062F9AA
:102B9000B4F5007FF6D142F2107005F0B0FB1C488E
:102BA0000AF070F99020FDF757FB02210546FFF768
:102BB0002FFF284605F082F87820FDF74DFB002115
:102BC0000646FFF739FB304605F078F83420FDF76C
:102BD00043FB0025224603230E490095064605F0D7
:102BE000ABF80D483060304605F068F828462946B5
:102BF00005F074F84FF0FF300DF5027D70BD00BF99
:102C0000B24002009E400200A44002000E3A0200C0
:102C1000AF400200BF360200D03F020030B50023B3
:102C20008B420DD044783CB1048C4FF6FF751419DB
:102C3000AC4228BF2C4604840133DBB22430EFE7DA
:102C400030BD000037B50E49002302A84A6840F89D
:102C5000043D042190470B4B05461C680198042154
:102C6000041B186022460848FFF7D8FF02210748D6
:102C70002246FFF7D3FF281C18BF01203EBD00BF2E
:102C800054C20720B0C20720B5C1072068C2072080
:102C900008B50B4B01781A780A4B914203D1198879
:102CA0000131198002E09988013199808270064AC9
:102CB0002021D3689847003018BF012008BD00BF0D
:102CC00005C0072091C1072054C207200A4B027893
:102CD00019780A4B8A4203D1DA88511CD98002E064
:102CE0001A89511C19810379C3F3C202511E61F381
:102CF000C5030371FFF7CCBF05C0072091C10720B2
:102D000010B50023064A990012F82340844201D1ED
:102D1000501810BD0133042BF4D1002010BD00BFAA
:102D200081C1072070B1C378591CCAB2FF2AC27092
:102D300008D100230448C218D17804334808102B66
:102D4000D070F7D1704700BF81C10720F0B50346AE
:102D50000246044600258D4207D02046243414F84C
:102D6000236CC6B10135EDB2F5E7002004468C4274
:102D700010D01579178CC5F3C20547EA0545A8425E
:102D8000164624BF05461E460134E4B224322846C6
:102D90003346ECE71846F0BD38B501310446CD00A6
:102DA000FFF750FF1B4B20781A78824204D1022192
:102DB0001948FFF7CBFF0CE004211848FFF7C6FFC6
:102DC000E17831B990F8235045F0800380F8233042
:102DD000042590F82310002221F07F0380F8225070
:102DE00043EA152580F8202080F8212080F8235020
:102DF0002346024604F1200153F8044B8B4242F86B
:102E0000044BF9D1064A0379117861F3C5030371C4
:102E100038BD00BF05C0072068C20720B5C1072024
:102E200004C0072010B5FFF76BFF044608BBFFF78F
:102E300067FF0446E8B9104AD378D179994202D2A3
:102E40000B46111D00E01146D07AD47B984238BF62
:102E50000A490B4A38BF03469C422CBF0C46144615
:102E600020460021042209F039FC064BD97A481C7F
:102E7000D872204610BD00BF81C1072089C107203C
:102E80008DC1072091C107202DE9F04105469046EC
:102E90000C460027474500F0BE8094F8233003F02D
:102EA0008000C1B269B3BDB12B786278934203D17F
:102EB0006878217888421ED0E87868B169789142B4
:102EC00008D122789A4205D1A879A179421A5342B1
:102ED000534100E0002373B994F8232094F82210A2
:102EE000208C02F07F0341EA03218842C0F28F80E8
:102EF0002046FFF7CDFE20460021242209F0EEFBFC
:102F000085E06378002B00F08280002D3DD02A7987
:102F100002F0C000C0281AD16A782178914202D10B
:102F200028789842E7D0E078A978884210D1934277
:102F300009D120782A78904205D1A079AA79811AFE
:102F40004842414100E000210029D4D100E0E0B135
:102F5000A978E278914218D16878984209D121780D
:102F60002A78914205D1A179AA79881A414248412B
:102F700000E0002048B12279002161F3C50284F805
:102F8000201084F82110227141E094F8232094F855
:102F90002200218C02F07F0240EA0220814236DBCF
:102FA00021790026C1F3C20284F8206084F82160F0
:102FB000D6B21EB12046FFF789FE28E001F0C0001E
:102FC000C02818D0154920780978884213D1E078B4
:102FD000984210D078B16379E270032262F307134C
:102FE00063712046FFF772FE0D482179037863F381
:102FF000C501217100E001266078FFF781FE18B15C
:103000000021042209F06AFB002E7FF474AF01371F
:10301000FFB224343EE7BDE8F08100BF05C00720C1
:1030200004C00720431ED9B2FD2903D8024A1070FC
:10303000012070470020704705C00720014B187819
:10304000704700BF05C0072007289CBF014B1870C0
:10305000704700BF04C007202DE9F743044691469E
:1030600098469DF828600D46002958D02F4B1F78B0
:10307000B94254D0B8F10F0F51D8002851D02022B6
:10308000002109F02BFBFF2D207914BF09F003026A
:10309000002262F38710032161F30200244B2071A8
:1030A0001A78277062F3C50020712248A770017852
:1030B0000BAF4B1CDAB20270A271657001970EB9AA
:1030C000012613E00198013E03464268E07953F877
:1030D000081B8718FFB2182F0193F6B205D80830E5
:1030E000201809F0D8FAE771E9E70026124F01210C
:1030F00028463970FFF704FE0546FFF713FE00224D
:103100003A70637925B968F307136371E57009E0D4
:10311000A87860F3071363716978E17002E0002614
:1031200000E006463046BDE8FE8300BF05C007202C
:1031300004C0072080C10720B5C20720164B70B518
:1031400001261E70044608B900251FE0FFF7A0FD08
:1031500005460028F8D0207900F0C001402903D0AE
:10316000B1F1800256425641C02906D1E3782BB115
:103170006078C31A18BF012300E000230EB9DB07F3
:1031800004D5617920460909FFF706FE024B0022AB
:103190001A70284670BD00BFB5C2072082B0F0B5D6
:1031A0001746421E0446D0B28DB0FD280D4613933B
:1031B00001D900205AE0002BFBD0159B002BF8D042
:1031C00017990029F5D0169A002AF2D014980028F1
:1031D000EFD000214822284809F080FA00219022EF
:1031E000264809F07BFA00211022254809F076FADA
:1031F000244E00210C22244809F070FA00210C22F0
:10320000224809F06BFA3470214C224E2570344666
:1032100013AD0FCD0FC42B68002118221E48236068
:1032200009F05CFA394617221B480AF064F90020BD
:10323000B268014690470028BBD09DF8601011B9D4
:10324000FFF700FD12E015480622012301900292CB
:10325000009304A8FF210022FFF7FEFE0028A8D05B
:1032600004A8FFF76BFF0028A3D0E9E70DB0BDE885
:10327000F04002B0704700BF68C20720B5C1072008
:1032800081C1072005C0072045C2072091C1072042
:10329000B6C2072054C207209DC10720B4400200D7
:1032A00070B5182B8CB006460D4617D81C1C18BFDD
:1032B0000124002A14BF214684F0010171B101925A
:1032C0000293009404A831462A469DF84030FFF747
:1032D000C3FE18B104A8FFF731FF00E000200CB0D6
:1032E00070BD13B50446107852790B461109009150
:1032F00022460321FFF7D4FF1CBD000030B5002398
:103300001A4608499C0011F823502DB1904201D172
:10331000081930BD0132D2B20133042BF1D10020A3
:1033200030BD00BF81C1072000231846044A995CC4
:1033300009B10130C0B20433102BF7D1704700BF80
:1033400081C107202DE9F04188B068460021202284
:1033500009F0C4F9A14B1C78002C40F03B81A04837
:103360002021026968469047002800F087809D4D23
:1033700069884B1C6B80FFF7D7FFA8729DF804206B
:1033800002F00700032804D097490A7842F00100B0
:1033900009E0964D9DF802102D78A94205D1924979
:1033A0000B7843F002000870E6E0C2F3C2019DF81A
:1033B00000709DF806005FFA81FE032262438C4E86
:1033C000B318B65CBE420AD15A78824207D19A78C5
:1033D0009970B2EB0E0618BF0126012417E00134E4
:1033E000042CEAD1834C236899708149587001F10B
:1033F000090083421F7040F0CC8021609DF80000DE
:103400009DF80220824240F0C780002426469DF8A5
:103410000200FFF707FD9DF80210002C08BF0126EF
:1034200001709DF80220002142708170F6B2FFF712
:1034300079FC1EB39DF80000A84200F09C809DF826
:103440000160FF2E1CD1664820210368684698471A
:1034500020B9654C227842F0040121709DF80530B6
:1034600003F00F04601C1A4660F30302B4EB131F51
:103470008DF8052002DA6846FFF70AFC00247BE09D
:10348000B5422CD16CB99DF8070050B1544B684639
:103490001A682021904720B9534C217841F004004C
:1034A00020709DF8043003F0C002402A12D19DF82C
:1034B000071011B95048182108E04A480C216A4603
:1034C000FFF70FFF002856D1002001466A46FFF79C
:1034D00008FF50E09DF80340002C4CD1F4E7474C26
:1034E0002378002BCAD09DF8054004F00F08270967
:1034F000B845C3DA3046FFF703FC9DF8032008F116
:10350000010868F3030495428DF805401DD19DF82C
:10351000045005F0C004402C05D0B4F180014B42AA
:1035200053EB010200E0012208B1457800E00546B6
:10353000C02C05D1AE4203D02C1C18BF012400E0E2
:10354000002444EA020530B90AE0A2B910B968467D
:1035500039460EE0154641788DF80310847802E074
:103560008DF8030004466846FFF792FB1DB16846DC
:103570002146FFF711FC6C46FFF764FB204604224E
:103580001F49FFF781FC20461E490222FFF77CFC01
:1035900020E0DE1C266031E785423FF436AFFFF7BE
:1035A00041FC0446FFF7BEFB23783BB19DF80510B4
:1035B000A67801F00F00B0423FF727AF9DF800203A
:1035C00022709DF8023063709DF80510C1F303006E
:1035D000A0701AE708B0BDE8F08100BFB5C20720AF
:1035E00054C2072091C10720B4C2072005C007209C
:1035F00045C2072000C007209DC10720B6C2072092
:10360000B5C1072068C2072000231846094AD1180F
:103610004A780AB10130C0B22433902BF6D1064B60
:10362000597809B1421CD0B293F825300BB1013062
:10363000C0B27047B5C1072068C2072008B5FFF7C0
:103640005FFB054B20B180781978421CD00001E067
:1036500019781820484308BD04C00720034A1168A0
:1036600001605168926841608260704791C1072093
:1036700030B5404C4FF48035E5613F4CA060E068C8
:10368000C006FCD43C488068C0B2002B6CD00B460E
:10369000002A5CD0384C93F90050072AA56030DD31
:1036A00093F90150083AA56093F90250A56093F987
:1036B0000350A56093F90450A56093F90550A560E7
:1036C00093F90650A56093F907500833A5602A4C7A
:1036D000A5696D07FBD5A5680D70A5684D70A56837
:1036E0008D70A468CC70244CE568ED06FBD4A56809
:1036F0000D71A5684D71A5688D71A468CC710831F4
:10370000C6E7032A18DD93F90150043AA56093F93E
:103710000250A56093F903500433A560164CE56888
:10372000ED06FBD4A5680D70A5684D70A5688D7079
:10373000A468CC700431ABE70133013AE56815F0B9
:10374000100FFBD10C4CA46801F8014BA0E7094B0A
:103750004FF480329A6140B230BDE56815F0100F29
:10376000FBD1054C0133A4689342F0DACD56024CEC
:10377000A560F2E700C009200080084007B50023DB
:1037800002A9012201F8013D00F01F001346FFF7D6
:103790006FFF9DF907000EBD07B502AB03F8011DD1
:1037A00000F01F0019460122002340F02000FFF71F
:1037B0005FFF0EBD08B51720FFF7E0FFC0F3001054
:1037C00008BD07207021FFF7E7BF03460A466FF0E8
:1037D0005F0019460023FFF74BBF08B50020FFF735
:1037E000CDFF20F0010149B20020BDE80840FFF7FD
:1037F000D3BF0000024B4FF08072DA61704700BF08
:1038000020C0092008B50020FFF7B8FF40F00101F3
:1038100049B20020FFF7C0FF024B4FF080729A615F
:1038200008BD00BF20C0092007202021FFF7B4BF3A
:1038300000216FF01E000A460B46FFF719BF00007B
:1038400037B505460C46FFF7F3FF28462146FFF73C
:10385000BCFF0D4B4FF0807200209A61ADF806005E
:10386000BDF806104A1C93B2ADF8063033B90649CC
:103870004FF08070C861FFF7DBFF3EBDFFF79AFF96
:103880000028EDD0F3E700BF20C0092008B51720BD
:10389000FFF774FF00F0010080F0010008BD072071
:1038A0004021FFF779BF08B503460A466120194653
:1038B0000123FFF7DDFEC0F3420008BD00216FF0D9
:1038C0001D000A460B46FFF7D3BE70B50446002024
:1038D0000D461646FFF752FF14B100F0BF0102E09B
:1038E00040F04000C1B215B101F0DF0201E041F04B
:1038F000200216B102F0EF0301E042F010030020B5
:1039000059B2BDE87040FFF747BF10B5044600202C
:10391000FFF734FF14B900F0F7020DE0012C04D1D9
:1039200000F0FB0040F0080206E0022C14BF40F05B
:10393000080140F00C01CAB2002051B2BDE81040AD
:10394000FFF72ABF08B50020FFF718FF40F002017B
:1039500049B20020BDE80840FFF71EBF08B50020AF
:10396000FFF70CFF20F0020149B20020BDE808403B
:10397000FFF712BF40F6DD13984206D840F66211F9
:10398000B0F5166F38BF084600E01846A0F1600297
:1039900051B20520FFF700BF10B504460620FFF71F
:1039A000EDFEFA2C00F0D70102D141F0200104E035
:1039B000B4F5FA6F08BF41F00801062049B2BDE82E
:1039C0001040FFF7E9BE10B504460620FFF7D6FE0B
:1039D000032C34BF2146032100F0F90040EA4102E4
:1039E00051B20620BDE81040FFF7D6BEF9284FF0CF
:1039F000FA0305D9B0F57A6F28BF4FF47A6000E07A
:103A00001846B0FBF3F0421ED3B20F2928BF0F2196
:103A100041EA0311042049B2FFF7BEBE1130C0B223
:103A2000162806D8202928BF202140B249B2FFF726
:103A3000B3BE7047032804D004280CBF0221032121
:103A400000E001210320FFF7A7BE03460A4630200D
:103A500019460023FFF70CBE03460A462A201946E2
:103A60000023FFF705BE000073B504460E46154659
:103A7000FFF724FFFFF7DCFE2A4B4FF08072DA617C
:103A8000FFF76CFF00210A460120FFF71EFFFFF73A
:103A900098FE0220FFF739FF3046FFF76BFF2846FC
:103AA000FFF77AFF0320FFF78EFF02200321FFF7C5
:103AB00073FE01200021FFF76FFE03214FF4FA701F
:103AC000FFF794FF00202146FFF7A8FF12200021F6
:103AD000FFF762FE13200021FFF75EFE1420002195
:103AE000FFF75AFE15200021FFF756FE1620002191
:103AF000FFF752FE0C4908680A79009005208DF8FE
:103B00000420FFF797FF68460521FFF79EFF6846F0
:103B10000521FFF7A1FFFFF715FF4FF4FA6004F04E
:103B2000D2FB7CBD20C00920BB400200042938B56F
:103B3000054603D1041C18BF012400E00024FEF751
:103B40002BF804B12860204638BD000007B5084BAB
:103B5000002102AA186842F8041D0B4605F01AFE5F
:103B6000019818B103494FF080520A600EBD00BFA2
:103B7000BCC2072004ED00E070B500238AB00193B9
:103B80000646007901AA00F0C001C0290CBF0F4908
:103B90000F4900230D683146284605F0FBFD044619
:103BA00058B9224602A9284605F0AEFE234628460B
:103BB000314601AA05F0EEFD0446019A1AB1054B03
:103BC0004FF08050186020460AB070BDC0C2072078
:103BD000B8C2072004ED00E038B51C4C226822B9B9
:103BE0000320202105F00DFD2060194D2A6822B91F
:103BF0000120202105F005FD2860164D2C685CB9D8
:103C000001202146032205F0FCFC286020B121465A
:103C10002246234605F026FD202040F6C3114FF42E
:103C2000FA62FFF721FFFFF7EDFD162001210A4A96
:103C300004F07CFC0548006838B10549086820B1EB
:103C4000044A1368181C18BF012038BDB8C20720E9
:103C5000C0C20720BCC207204D3B01002DE9F34143
:103C600080460F46164606F023FB012807D1324650
:103C700040463946002305F0C6FDC6B213E00023D6
:103C80000193FDF789FF841941F10005404639464B
:103C900001AA05F039FEC6B22EB9FDF77DFF8D42AF
:103CA00008BF8442F2D270B2BDE8FC8137B5044649
:103CB0000D46FFF7C3F9237883420AD0E07840B974
:103CC00009F02AF900F00301481CBD22504304F01A
:103CD000FAFAFFF78FFDFFF780FD2046A9B2FFF744
:103CE000AFFDFFF7A1FDFFF78DFD06F0E1FA01281A
:103CF0000ED1084B002102AA186842F8041D0B4699
:103D000005F048FD019818B1034A4FF08051116049
:103D100001203EBDBCC2072004ED00E038B50446DA
:103D20000D46FFF7B3FD48B1A9B22046FFF7BBFD32
:103D3000FFF7ACFD08B9FFF7B2FD012038BD000068
:103D400000B50C4B0C488DB00C490D4A09930B90F3
:103D50000CAB002043F8102D0A9104900FCB8DE896
:103D60000F00084B6A200121074AFFF717FA0DB030
:103D700000BD00BFD93B01001D3D0100AD3C01006D
:103D80002D3B0100793B0100C04002000A46034977
:103D9000034608681946FFF761BF00BFB8C2072095
:103DA0000A460349034608681946FFF757BF00BF94
:103DB000C0C2072008B506F07BFA0F4B01285869EE
:103DC00012D142020CD5FFF71FFC0C4900280CBF92
:103DD0004FF0FF320122086800210B4605F013FD69
:103DE000BDE80840FFF7AEBA4302F9D5FFF70CFC77
:103DF0000028F5D108BD00BF00C00920BCC20720C3
:103E000010B506F051FB0C4B1A6822F0E06020F070
:103E1000FF0119601C6844F004021A60186840F041
:103E2000807119605C68002CFCDA034B5C6806F05A
:103E30004DFBC4F30B1010BD0040034030B50446E9
:103E40004DB2006894F9041053B22A46BDE83040E0
:103E500004F0B4BF1FB5002204AB90F9044023F86E
:103E6000042D4AB2022100910068214604F0B1FFFE
:103E70009DF90C009DF80D3082B243EA022188B210
:103E800004B010BD10B52A2104461922FFF7D6FF51
:103E90000D22206894F9041004F09FFFB0F12A036A
:103EA0005842584110BD0000234910B50A680B461E
:103EB00012F010020ED08868C83088611F490A8845
:103EC0001F2A05D8DC6A1E4840F8224001320A80C9
:103ED00010202EE00B68D9072CD51848008801283F
:103EE00022D9174B411E04338A4207DA53F8041CC7
:103EF0001C680132611A43F8041CF3E7104A0023DE
:103F000050681A4600EB50008B420BDA0C4C54F808
:103F10002340844203D9012404FA03F422430133E9
:103F20009BB2F1E707490A60044B00221A80024B5A
:103F30000120186010BD00BF00800040C8C20720EB
:103F4000CCC20720C4C2072070B50220144C012146
:103F500006F09AFC012501210220002606F0ACFCA7
:103F60006560266706F018FE42F21073B0FBF3F0AE
:103F7000E060A16A21F00702A262A36A43F0060092
:103F8000A062A6616169074B29436161DA68042177
:103F900042F03000D860044B2846196070BD00BF65
:103FA0000080004000C0024000E100E0024B1868C1
:103FB000003018BF01207047C4C20720024B002206
:103FC00018681A60704700BFC4C20720044A08B5C9
:103FD00001F07F034171D25C0321FFF72FFF08BD81
:103FE000C5400200044A08B501F07F038171D25C2C
:103FF0000221FFF723FF08BDC5400200642370B50E
:1040000091FBF3F404FB13110A224CB294FBF2F679
:1040100002FB164303F1300149B20546FFF7E2FF08
:10402000092C02DC2846202103E006F13002284654
:1040300051B2BDE87040FFF7C9BF10B5202104465A
:10404000FFF7C4FF20462021BDE81040FFF7CABF9C
:1040500038B5044694F90410006804F0CBFE054618
:1040600088B1204606210022FFF7E8FE20460721FE
:104070000022FFF7E3FE20462E21FFF7A7FF204690
:104080002E21FFF7AFFF284638BD01207047000002
:10409000124B01F00F0140F2131201709A61017886
:1040A000CA0701D50122DA61037803F00201CAB21E
:1040B00012B10A4B0221D961027802F00401CBB29D
:1040C00013B106491022CA61007800F00803DAB281
:1040D0001AB102484FF48071C161704720C00920B5
:1040E00001207047FFF78CBE01207047044B5969CF
:1040F000C1F38130C1F3412242EA8000704700BF22
:1041000020C0092010B5012104468122FFF796FE48
:104110000122206894F9041004F05FFE10F0600F93
:104120000CBF0020012010BD38B500210446FFF768
:1041300091FE0121812285B22046FFF77FFE1023E8
:1041400028B290FBF3F007F029FC4FF0765107F00E
:1041500079FCA16807F06EFB38BD000008B5FFF7D9
:10416000E3FF054907F06EFC044907F01FFD4FF01F
:10417000844107F05FFB08BD000010410000A04033
:104180002DE9F04F0546ADF5177D0C46914602A886
:10419000294601229A4602F089F88346002853D125
:1041A0000CA821460A2202F081F8834608B102A831
:1041B00037E000900190064607468046FDF7ECFC8C
:1041C00016A904464FF4007202A86B4602F03AF9B1
:1041D0008346A8B9009A9AB1FDF7DEFCB8EB040259
:1041E00068EB080300EB0208FDF7D6FC009A0446D2
:1041F0000D460CA816A901AB02F0CAF9834698B186
:10420000B9F1000F01D0C9F80080BAF1000F01D058
:10421000CAF80070A09901B10E6002A802F0BCFAC1
:104220000CA802F0B9FA0FE0019900988142E7D199
:10423000FDF7B2FC4FF0FF321440C7193F1B009C42
:1042400000231D403619B9E758460DF5177DBDE826
:10425000F08FF0B504468DB00F46164621461D4638
:1042600002A800230122019302F020F8044670B94D
:104270001DB102A8294602F0A7FA02A83946324623
:1042800001AB02F0DFF8044602A802F085FA2046EE
:104290000DB0F0BDF0B504468DB00F461646214670
:1042A0001D4602A800230A22019301F0FFFF0446E5
:1042B00070B91DB102A8294602F086FA02A8394653
:1042C000324601AB02F064F9044602A802F064FA37
:1042D00020460DB0F0BDF0B504468DB00F46164631
:1042E00021461D4602A800231222019301F0DEFFA1
:1042F000044680B902A80DB1294600E0059902F0F4
:1043000063FA02A83946324601AB02F041F904468D
:1043100002A802F041FA20460DB0F0BD7F2816D960
:1043200031B1FF2812D80A49803831F8100070479F
:10433000074A8BB232F81120824203D00131802922
:10434000F6D10B4603F18000C0B2704700207047E1
:10435000264302000023064A32F8131031B1884286
:1043600001D00133F7E7034830F81300704700BF6E
:10437000264402004641020010B501200C4605F01B
:10438000E2F92060003018BF012010BD0120704705
:1043900010B5044605F08CFF01280AD100210B4618
:1043A000204640F6B83205F02EFA431E58425841D6
:1043B00010BD012010BD10B5044605F079FF01289D
:1043C00007D1002120460A460B46BDE8104005F003
:1043D00049B910BD10B5044604F0C6FA24B1012C49
:1043E00006D100F05BFB01E000F0F8FC044600E0C1
:1043F000042404F0CDFA204610BD20B1012801D1DB
:1044000000F044BB04207047F8B504460F4616463A
:104410001D4604F0A9FA3CB1012C0CD138463146B6
:104420002A4600F0E3FA04E0384631462A4600F016
:1044300019FD044600E0042404F0AAFA2046F8BD61
:10444000F8B504460F4616461D4604F08DFA3CB1F9
:10445000012C0CD1384631462A4600F067FA04E0B8
:10446000384631462A4600F021FD044600E0042487
:1044700004F08EFA2046F8BD70B504460E46154687
:1044800004F072FA34B1012C0AD13046294600F00A
:1044900027F903E03046294600F022FD044600E0FB
:1044A000042404F075FA204670BD000010B50446DF
:1044B00006F072FB074BB0FBF3F10223B1FBF3F202
:1044C000944202D30448036110BDB3F5807FF9D054
:1044D0000233F3E740420F0000000340044B9860B2
:1044E000DA68D206FCD40248816848B2704700BF3F
:1044F0000000034038B5FDF74FFB00F5FA754FF0AB
:10450000FF30FFF7EBFF4FF0FF30FFF7E7FFC4B2DC
:10451000FF2C07D0FDF740FB2A460023994208BF35
:104520009042F0D3204638BD38B5064C4FF00075A8
:10453000E561FFF7DFFF044BA5611A7842F0010047
:10454000187038BD20C0092006C0072070B5054688
:104550000E46FDF721FB00F164044FF0FF30FFF73A
:10456000BDFFC0B2FF2809D1FDF716FB224600238C
:10457000994208BF9042F0D3002070BDFE28FBD1C5
:10458000102E06D928464FF40071002204F08AF953
:1045900018E02C464FF0FF30FFF7A0FF20704FF0DF
:1045A000FF30FFF79BFF60704FF0FF30FFF796FF83
:1045B000A0704FF0FF30FFF791FFAB19E0700434AB
:1045C000A342E7D14FF0FF30FFF788FF4FF0FF30F5
:1045D000FFF784FF012070BD38B505460C46FFF794
:1045E00089FFFF281ED160B2FFF778FFFD2C1BD09A
:1045F0004FF400714FF0FF32284604F053F94FF0AA
:10460000FF30FFF76BFF4FF0FF30FFF767FF4FF012
:10461000FF30FFF763FF00F01F00411F4A4252EBDB
:10462000010038BD002038BD012038BD38B5044632
:1046300020060D4607D577200021FFF7F7FF012858
:104640003BD804F07F041D4B4FF000729A61DA6191
:10465000FFF750FFFF282FD160B2FFF73FFF28166A
:10466000FFF73CFF45F30740FFF738FF45F307200E
:10467000FFF734FF68B2FFF731FF402C04D0482C1D
:104680000CBF8720012000E0952040B2FFF726FFF5
:104690004C2C03D14FF0FF30FFF720FF0A244FF0DE
:1046A000FF30FFF71BFF01460029C0B205DA013CCD
:1046B00014F0FF04F3D138BDFF2038BD20C009201D
:1046C000054A064913784869410154BF03F0FD03C8
:1046D00043F003031370704706C0072020C0092071
:1046E0007FB505460C46FFF7EBFF052D18D1217865
:1046F000012900F00F810AD3022940F0098188487E
:10470000426982F08063C3F38061617002E1844C8E
:10471000606910F0806440F0FD80FFF705FFF9E06C
:10472000804B1878C00700F1F7800E2D00F2EA8068
:10473000DFE815F00F00190054005800E800E80009
:10474000E800E800E800E800B200B700B900C300E4
:10475000D40073484FF00071C161FFF7CBFEFF3802
:1047600018BF0120CFE049200021FFF75FFF054679
:1047700008B10120C7E068461021FFF7E7FE0028D6
:10478000F7D09DF800109DF808308A09012A07D15A
:104790009DF80910481C00EB03239AB2930246E0EF
:1047A0009DF80700810001EB93129DF80630501C24
:1047B0009DF8052003F0030100EB812302F00F00B8
:1047C0009DF80A109DF8092000EBD11002F00301BA
:1047D00000EB4100C21F03FA02F328E04FF400701F
:1047E00020805CE0504D2B7803F00400C1B209B387
:1047F000CD200021FFF71AFF0028BAD14FF0FF307B
:10480000FFF76CFE68461021FFF7A0FE0028B0D02D
:1048100030254FF0FF30013DFFF760FE15F0FF053A
:10482000F7D19DF80A001022010902FA01F3236072
:10483000284668E04920FFF7F9FE0646002898D18F
:1048400068461021FFF782FE002892D0297801F0F7
:104850000202D0B29DF80A1080B101F03F009DF82D
:104860000B10CA099DF80D1002EB40038A09581C71
:10487000531E00FA03F02060304644E09DF80B30F0
:10488000C1F38402511C03F003025B0903EBC20273
:10489000531C4B43236036E023490A7822700020E2
:1048A00031E0492000E04A200021FFF7BFFE002848
:1048B0007FF45FAF204610211DE07A200021FFF732
:1048C000B5FE00287FF455AF05464FF0FF30FFF7E7
:1048D00005FE60550135042DF7D1E0E7CD2000211C
:1048E000FFF7A4FE00287FF444AF4FF0FF30FFF73E
:1048F000F5FD20464021FFF729FED0F1010038BF29
:10490000002000E00420064B4FF000729A6104E0A2
:10491000042002E0002000E0032004B070BD00BFCE
:1049200020C0092006C00720E0C4072070B5144647
:1049300005460E46FFF7C4FE002C4AD0284B1A78D5
:10494000D20748D4187800F00401CBB2002B44D130
:1049500024484FF000722449C2610B7803F008022A
:10496000D0B200B97602012C0DD158203146FFF7A4
:104970005DFE30BBFE212846FFF72EFED0F101047C
:1049800038BF00241DE013F0060F03D0D7202146C6
:10499000FFF74CFE59203146FFF748FE88B92846FC
:1049A000FC21FFF719FE28B1013C14F0FF0405F5C6
:1049B0000075F4D10020FD21FFF70EFE002808BF8E
:1049C0000124084B4FF00071201C996118BF012091
:1049D00070BD042070BD032070BD022070BD00BFFB
:1049E00006C0072020C00920E0C4072070B5144687
:1049F00005460E46FFF764FE002C3CD0204B18788D
:104A0000C1073AD41F494FF000721F4BCA61187892
:104A100000F00802D1B201B97602012C0ED151206A
:104A20003146FFF703FEF0B928464FF40071FFF757
:104A30008DFDD0F1010438BF002414E0522031462E
:104A4000FFF7F4FD78B928464FF40071FFF77EFDBB
:104A500028B1013C14F0FF0405F50075F3D14C209A
:104A60000021FFF7E3FD074B4FF000709861201C19
:104A700018BF012070BD042070BD032070BD00BFB1
:104A800006C0072020C00920E0C4072008B5FFF7B2
:104A900017FE014B187808BD06C007202DE9F34129
:104AA000FFF70EFE554B1A7802F00200C1B2002942
:104AB00040F0A0800120FFF7F9FC0A244FF0FF30FE
:104AC000013CFFF70BFD14F0FF04F7D14C4B4FF006
:104AD00000764020DE612146FFF7A8FD012801D0C5
:104AE000002674E0FDF758F84FF4D57100F57A7799
:104AF0004820FFF79BFD012841D14FF0FF30FFF721
:104B0000EDFC01AA10550134042CF6D19DF80600E5
:104B10000128E5D19DF80710AA29E1D1FDF73CF85D
:104B20003C460025A94208BFA04206D3FDF734F851
:104B3000A94208BFA042D3D207E0E9204FF080414C
:104B4000FFF774FD0028E9D1F0E77A200021FFF794
:104B50006DFD0028C4D104464FF0FF30FFF7BEFCC6
:104B600001AE30550134042CF6D19DF8043003F029
:104B70004002D0B200280CBF04260C2627E0E92012
:104B80002146FFF753FD01288CBF012602268CBF6A
:104B90004FF041084FF0E908FCF7FEFF3C460025C6
:104BA000A94208BFA0420BD3FCF7F6FFA94208BFF9
:104BB000A0420CD350204FF40071FFF737FD06E000
:104BC00040460021FFF732FD0028E5D1ECE70D4912
:104BD0000B4B4FF000720E709A6146B10748017896
:104BE00001F0FE0202701820FFF760FC01E0FFF701
:104BF0009BFC024B1878BDE8FC8100BF06C0072073
:104C000020C00920E0C40720F8B51A4B05461C88CF
:104C10000E46B4F5007F174602D1084611460AE059
:104C2000B4F5807F09D1084611462246A84706F50B
:104C3000807007F58071224619E0B4F5047F07D132
:104C400022F4FF72084622F001014FF400720EE0D8
:104C5000B4F5847F0CD1170A08464FF480727902AC
:104C6000A847791C06F5807049024FF48072A84766
:104C7000F8BD00BF4CC3072010B5034600295CDD1A
:104C800093F900402D4A0729946030DD93F90140E3
:104C90000839946093F90240946093F9034094605A
:104CA00093F90440946093F90540946093F90640A9
:104CB000946093F9074008339460204A946964072C
:104CC000FBD594680470946844709468847092680A
:104CD000C2701A4AD468E406FBD4946804719468DC
:104CE0004471946884719268C2710830C6E70329E0
:104CF00018DD93F901400439946093F902409460FF
:104D000093F90340043394600C4AD468E406FBD45E
:104D10009468047094684470946884709268C27057
:104D20000430ABE701330139D46814F0100FFBD124
:104D3000024A926800F8012BA0E710BD0000034072
:104D400007B58DF80400080A0B0C8DF806008DF8E5
:104D5000071001A804218DF80530FFF78DFF0EBD67
:104D6000F7B50D4C06464025080CE5610B0A1746C1
:104D70008DF8050003228DF8071001A804218DF895
:104D800004208DF80630FFF777FF304639460022C1
:104D900003F088FDA561FEBD00C009200D4B0E4843
:104DA00040226FF02801DA618160C268D106FCD42C
:104DB000094B9B6808484FF0FF318160C268D206FA
:104DC000FCD4054B98680306F4D5024A4021916152
:104DD000C0B2704700C0092000000340F7B5FFF7DC
:104DE000DDFF07461B481C4D81781C4C00234026E4
:104DF0000288238001A8EE618DF806100321ADF82A
:104E00000420FFF739FF9DF805009DF806301F28A4
:104E1000AE6117D1A3F12502022A13D81049252B20
:104E20000B7007F0010006D100280CBF4FF484730B
:104E30004FF4807305E000280CBF4FF404734FF467
:104E400000732380054A1188D1F1010038BF00208A
:104E5000FEBD00BF0646020000C009204CC307206B
:104E60004EC307202DE9F843064690464FEA4129F4
:104E7000FFF794FF34460025C6EB09074545274454
:104E80000CDA214607483A46FFF7BEFE0648394687
:104E900007F0E0FF04F500740135EDE70020BDE800
:104EA000F88300BF614D0100094602002DE9F04181
:104EB000064617464FEA412804460025C6EB08027D
:104EC000BD42224407DA21460448FFF79DFE04F55F
:104ED00000740135F2E70020BDE8F081CD4F0100FC
:104EE00008B507281CD8DFE800F0040713171919C4
:104EF0001919FFF753FF11E00A4B18782538C3B290
:104F0000032B9ABF084A52F8233000235B0A04E0BF
:104F10004FF40070088001E001230B60002008BD01
:104F2000042008BD4EC307201846020030B591B0DA
:104F300003466C4600F1400518685968224603C2D2
:104F40000833AB421446F7D1064D40249B20002184
:104F5000EC61FFF7F5FE68462146FFF78DFEAC6178
:104F600011B030BD00C0092070B5074D4024064681
:104F700000217720EC61FFF7E3FE30462146FFF782
:104F80007BFEAC6170BD00BF00C00920084B1888D3
:104F900030F01F000BD007490B78253BD9B203290D
:104FA0009ABF054A52F821100021B1FBF0F070477A
:104FB0004CC307204EC3072018460200024B187846
:104FC000003018BF012070474CC307202DE9F7437C
:104FD0004FF0FF330D46904601938146FFF7DEFE0A
:104FE000FFF7ECFF0446A0B1164E40271648F761C4
:104FF00001880320B1F5847F14BF4FF400714FF492
:1050000080712943FFF79CFE01A80421FFF734FEBD
:10501000B7610C4E4022F26182202946FFF790FED4
:1050200048464146012203F03DFC3CB1019B02A8E9
:10503000591C40F8041D0421FFF71EFE4020B061FA
:10504000BDE8FE8300C009204CC30720F7B5114B13
:1050500007461E884FF0FF30B6F5847F14BF4FF42B
:1050600000764FF480760190FFF7A8FF60B10A4CFC
:105070004025032046EA4721E561FFF761FE01A8CC
:105080000421FFF7F9FDA5610198B0F1FF3F08BFCA
:105090000020FEBD4CC3072000C009201FB501A899
:1050A00003F02EFB9DF809209DF8083002F00F0157
:1050B0009DF8062003F01F004B0543EA004002F074
:1050C0001F0140EAC1239DF805009DF8041000F07F
:1050D0003F0243EA4210BDF80A20C1F344035106DF
:1050E000184301F10843184305B000BD10B5002373
:1050F000D41A032C03D9CC58C4500433F8E702F077
:10510000030422F00302801800238A18A34203D06C
:10511000D15CC1540133F9E710BD8218904202D02E
:1051200000F8011BFAE7704770B5164B00242246C1
:1051300053F8085C65B10668B5420AD153F8046CAF
:105140008568AE4205D11E88C588AE4201D105E012
:10515000012401320C33032AEAD10CE049B90A498F
:105160000C2000FB02135A89B2F5807F01D0002089
:1051700070BD102070BD002CF9D10229F7D012208B
:1051800070BD00BF5CC3072054C3072070B51F4A21
:105190000668002352F8084CB44208D152F8045C67
:1051A0008468A54203D11588C488A54210D0013374
:1051B0000C32032BEED1164A1368F3B90C255D436C
:1051C000541956518268C088626000222081628131
:1051D0000F4A0C2000FB0322508929B108B100209E
:1051E00070BD4FF4807201E0411C8AB208490C2066
:1051F00000FB03104281581C70BDD36823B1936932
:10520000002BECD10223D9E70123D7E75CC30720A9
:1052100054C307200138022813D80C490C2202FB82
:1052200000135B89B3F5807F03D01BB1013B9BB2B8
:1052300000E00023504309184B8123B9034A13505F
:1052400001E0022070470020704700BF54C30720D0
:10525000002310B5044618464208E15C42EAC0103B
:10526000013342180B2B02F0FF00F5D110BD03688B
:10527000024613B94FF0FF30704793F90000303801
:10528000082808D893F901103A2904D102330128DB
:10529000136001DDEEE700207047F8B503690C46A6
:1052A00001F1090163B3436900229D5C01326EB2D2
:1052B000202E1BD0052E08BFE525092A02D12E2756
:1052C00001F8017BEEB2A6F14107192F0CD81F7B24
:1052D000082A94BF4FF0080C4FF0100C1CEA070F7F
:1052E0001CBF06F12005EDB201F8015B0B2ADCD1F1
:1052F000DD7A25721E8BDA69A680DB8A2260E38064
:1053000000250D70A669EEB1016909B9002517E005
:10531000E269002AFAD0818C4FF6FF739942F5D0EA
:10532000076A37F8150058B10021FEF7F7FF00288B
:10533000ECD0E269511E8D42E8D270550135F0E79C
:1053400000207055F8BDF8B504460079F8B1256B1A
:1053500004F13407607839462A460123FFF770F8D4
:10536000A0B9636A2071E069EA1A824201D3002081
:10537000F8BDE678012EFAD9E16960786D182A4601
:1053800039460123FFF75CF8013EF3E70120F8BD41
:10539000F8B50446FFF7D7FF05466DBB2378032B0E
:1053A00022D16679012E1FD104F1340738462946EF
:1053B0004FF40072FFF7B1FE10494AF655206163C1
:1053C0000F4A216A6369A4F832022069C4F81822DE
:1053D0004A1CC4F81C32C4F82002226360783946A3
:1053E0003346FFF72DF86571002160780A46FFF714
:1053F00043F8003018BF0120F8BD00BF5252614190
:105400007272416110B50446A8B103689BB11A7865
:105410008AB1D988808881420DD1D868FEF7B8FF5B
:1054200058B123685878FEF7E8FF10F0010F0CBF61
:105430000020032010BD092010BD0F2010BD38B57D
:10544000036B044699420D460CD0FFF77CFF58B918
:10545000607804F134012A460123FEF7D5FF18B91C
:10546000256338BD002038BD012038BD00234FF032
:10547000FF3210B5037102630446FFF7E0FFA0B9E5
:10548000B4F832124AF65523994210D1D4F86A2062
:10549000084B22F07F4199420AD0D4F8860020F0D0
:1054A0007F42D01A18BF012010BD032010BD02207A
:1054B00010BD00BF4641540050B10C2908D00B2943
:1054C00006D0092904D00F2902D0C068FEF773BFA7
:1054D000704700002DE9FF4100230360074608469E
:1054E0001546FFF7C4FE061EC0F2FD80854850F841
:1054F0002640002C00F0F980E068FEF749FF002804
:1055000000F0F5803C60217879B16078FEF775FF96
:10551000C3070AD4002D00F0E48000F00402D3B2E7
:10552000002B14BF0A200020E8E00022F0B2227015
:105530006070FEF74FFFC10700F1DB802DB100F076
:105540000403D8B2002840F0D68000212046FFF79F
:105550008DFF01281CD1002204EB820595F8F6117D
:1055600005F5F97601B1B1684DF802100432102A40
:10557000F2D100265DF806502DB120462946FFF7EE
:1055800075FF08B90BE002200436102EF2D100E0BE
:105590000025032800F0B18008B10D20AEE0B4F87A
:1055A0003F30B3F5007FF8D1B4F84A3003B9A36DAA
:1055B00094F84460E361701E0128E670EDD894F819
:1055C0004100A0700028E8D0411E0142E5D1B4F8A6
:1055D00045100A072181E0D1B4F8472002B9626D75
:1055E000B4F842C0BCF1000FD7D006FB03F80CEBB7
:1055F00011174744BA42D0D3D21BB2FBF0F2002AB3
:10560000CBD040F6F576B24206D94FF6F57082421D
:105610008CBF0326022600E00126023205EB0C00B7
:105620007F19032EA26125626062E76205D100291D
:10563000B3D1206E9100A0620EE00029ADD008EB3E
:105640000001022EA16201D1510005E00320504368
:1056500002F0010202EB500101F2FF12B3EB522FF4
:105660009BD34FF0FF338021032E6361236161716F
:105670001ED1B4F8640001281AD12046691CFFF736
:10568000DEFEA8B9B4F832224AF655239A42607178
:105690000ED1616B1C4881420AD1D4F818321B4AE2
:1056A000934205D1D4F81C12D4F820026161206124
:1056B000174A26701388591C164B88B210801A6836
:1056C000E080A24201D100211960D868A04202D135
:1056D000104A0021D1609B69A34202D10D490020EC
:1056E000886100200AE00B2008E00C2006E00F2073
:1056F00004E0032002E00A2000E0012004B0BDE83D
:10570000F08100BF78C3072052526141727241613B
:1057100050C3072054C30720836902399A1E91425F
:1057200004D28278C06A02FB0100704700207047F3
:105730000129F8B504460D4648D98369994245D2F6
:105740000178022927D0032930D001293BD1426AB0
:1057500005EB550602EB5621FFF771FE002832D10A
:10576000636AF005013604EBD05703EB562120465F
:1057700097F83470FFF763FE28BBF60504EBD654A8
:1057800094F83410EA0747EA012001D50009F8BD72
:105790000205100DF8BD426A02EB1521FFF74FFE1E
:1057A00088B92D0604EBD554A08EF8BD436A03EBEF
:1057B000D511FFF744FE30B96D0604EBD554616B8B
:1057C00021F07040F8BD4FF0FF30F8BD0120F8BD6A
:1057D00070B504460D46E1808168012901D102209F
:1057E00070BD03689A699142F9D271B9187803289B
:1057F00001D1996A49B919890020A942E060EED91E
:105800009B6A03EB1512226119E09E783601B542BE
:105810000ED32068FFF78CFF0146013018D0012914
:10582000DDD923689A699142D9D2AD1BADB2EEE7BA
:10583000E1602068FFF770FF00EB1511216120681F
:1058400005F00F0500EB451134316161002070BD9A
:10585000012070BD0129F8B504460D4616465ED9F3
:10586000836999425BD20178022939D0032942D059
:10587000012950D1426A05EB550702EB5721FFF78A
:10588000DEFD002848D1F805C20D15F00105F3B280
:1058900007D0A11891F8340000F00F0141EA03137A
:1058A000DBB2616A0120A2180137207182F834301E
:1058B000204601EB5721FFF7C2FD68BBFF05FA0D3B
:1058C00015B1C6F3071607E0A31893F83410C6F312
:1058D000032621F00F073E43A71887F834601BE02A
:1058E000426A02EB1521FFF7AAFDA8B92D0604EBC9
:1058F000D555AE8610E0426A02EBD511FFF79FFD49
:1059000050B96D0604EBD5556B6B03F070410E4337
:105910006E63303500E0022001232371F8BD0220C0
:10592000F8BDF8B504460F4631B906696EB1806915
:10593000864228BF012609E0FFF7FAFE01283DD97B
:10594000A36998423BD33E4600E001263546A16953
:1059500001358D4204D3012E01D80020F8BD022567
:1059600020462946FFF7E4FE48B1411C02D14FF022
:10597000FF30F8BD012821D0B542E8D1EDE720463F
:1059800029466FF07042FFF765FFA8B957B9636900
:1059900025615A1C0ED060795A1E40F001016261E7
:1059A000617107E0204639462A46FFF753FF002879
:1059B000EDD001E02846F8BD0128D8D00120F8BD7F
:1059C0002DE9F843C6880446701C86B20F4616B906
:1059D0000420BDE8F8832369002BF9D016F00F08E6
:1059E0005AD1591C2161E168206819B90189B14275
:1059F000EED951E08278531E13EA16124CD1FFF70C
:105A000097FE0128054602D80220BDE8F883431C12
:105A100002D10120BDE8F883206881698D4235D329
:105A2000002FD5D0E168FFF77CFF054600283CD069
:105A30000128E9D00130ECD02068FFF784FC07464C
:105A40000028E6D12068394634304FF40072FFF761
:105A500064FBD4F8009029464846FFF75DFEC9F87C
:105A6000300020688278BA420DD901210171206886
:105A7000FFF769FC0028CCD120680137026BFFB228
:105A8000531C0363EDE7036BDF1B0763E5602068CE
:105A90002946FFF741FE20612068E68000EB4812AE
:105AA000343262610020BDE8F8830720BDE8F88346
:105AB0002DE9F84F4FF0FF0905464C462868296943
:105AC000FFF7BDFC804600287DD16E693778002F36
:105AD00073D0F27AE52F02F03F0365D002F00800A0
